{
  "_format": "hh-sol-artifact-1",
  "contractName": "DAO",
  "sourceName": "contracts/DAO.sol",
  "abi": [
    {
      "inputs": [
        {
          "internalType": "address",
          "name": "_owner",
          "type": "address"
        },
        {
          "internalType": "address",
          "name": "_token",
          "type": "address"
        },
        {
          "internalType": "address",
          "name": "_staking",
          "type": "address"
        },
        {
          "internalType": "address",
          "name": "_proposalManager",
          "type": "address"
        },
        {
          "internalType": "address",
          "name": "_strategyManager",
          "type": "address"
        },
        {
          "internalType": "address",
          "name": "_parameters",
          "type": "address"
        },
        {
          "internalType": "address",
          "name": "_panicManager",
          "type": "address"
        }
      ],
      "stateMutability": "nonpayable",
      "type": "constructor"
    },
    {
      "inputs": [],
      "name": "EmptyString",
      "type": "error"
    },
    {
      "inputs": [],
      "name": "InsufficientETH",
      "type": "error"
    },
    {
      "inputs": [],
      "name": "InvalidAddress",
      "type": "error"
    },
    {
      "inputs": [],
      "name": "NotOwner",
      "type": "error"
    },
    {
      "inputs": [],
      "name": "ZeroAmount",
      "type": "error"
    },
    {
      "inputs": [],
      "name": "ZeroPrice",
      "type": "error"
    },
    {
      "inputs": [],
      "name": "buyTokens",
      "outputs": [],
      "stateMutability": "payable",
      "type": "function"
    },
    {
      "inputs": [
        {
          "internalType": "address",
          "name": "_newStrategy",
          "type": "address"
        }
      ],
      "name": "changeStrategy",
      "outputs": [],
      "stateMutability": "nonpayable",
      "type": "function"
    },
    {
      "inputs": [
        {
          "internalType": "string",
          "name": "_title",
          "type": "string"
        },
        {
          "internalType": "string",
          "name": "_description",
          "type": "string"
        }
      ],
      "name": "createProposal",
      "outputs": [
        {
          "internalType": "uint256",
          "name": "",
          "type": "uint256"
        }
      ],
      "stateMutability": "nonpayable",
      "type": "function"
    },
    {
      "inputs": [
        {
          "internalType": "address",
          "name": "_to",
          "type": "address"
        },
        {
          "internalType": "uint256",
          "name": "_amount",
          "type": "uint256"
        }
      ],
      "name": "mintTokens",
      "outputs": [],
      "stateMutability": "nonpayable",
      "type": "function"
    },
    {
      "inputs": [],
      "name": "owner",
      "outputs": [
        {
          "internalType": "address",
          "name": "",
          "type": "address"
        }
      ],
      "stateMutability": "view",
      "type": "function"
    },
    {
      "inputs": [],
      "name": "panicManager",
      "outputs": [
        {
          "internalType": "contract IPanicManager",
          "name": "",
          "type": "address"
        }
      ],
      "stateMutability": "view",
      "type": "function"
    },
    {
      "inputs": [],
      "name": "parameters",
      "outputs": [
        {
          "internalType": "contract IParameters",
          "name": "",
          "type": "address"
        }
      ],
      "stateMutability": "view",
      "type": "function"
    },
    {
      "inputs": [],
      "name": "proposalManager",
      "outputs": [
        {
          "internalType": "contract IProposalManager",
          "name": "",
          "type": "address"
        }
      ],
      "stateMutability": "view",
      "type": "function"
    },
    {
      "inputs": [
        {
          "internalType": "uint256",
          "name": "_amount",
          "type": "uint256"
        }
      ],
      "name": "stakeForProposing",
      "outputs": [],
      "stateMutability": "nonpayable",
      "type": "function"
    },
    {
      "inputs": [
        {
          "internalType": "uint256",
          "name": "_amount",
          "type": "uint256"
        }
      ],
      "name": "stakeForVoting",
      "outputs": [],
      "stateMutability": "nonpayable",
      "type": "function"
    },
    {
      "inputs": [],
      "name": "staking",
      "outputs": [
        {
          "internalType": "contract IStaking",
          "name": "",
          "type": "address"
        }
      ],
      "stateMutability": "view",
      "type": "function"
    },
    {
      "inputs": [],
      "name": "strategyManager",
      "outputs": [
        {
          "internalType": "contract IStrategyManager",
          "name": "",
          "type": "address"
        }
      ],
      "stateMutability": "view",
      "type": "function"
    },
    {
      "inputs": [],
      "name": "token",
      "outputs": [
        {
          "internalType": "contract IGovernanceToken",
          "name": "",
          "type": "address"
        }
      ],
      "stateMutability": "view",
      "type": "function"
    },
    {
      "inputs": [],
      "name": "unstakeProposing",
      "outputs": [],
      "stateMutability": "nonpayable",
      "type": "function"
    },
    {
      "inputs": [],
      "name": "unstakeVoting",
      "outputs": [],
      "stateMutability": "nonpayable",
      "type": "function"
    },
    {
      "inputs": [
        {
          "internalType": "uint256",
          "name": "_proposalId",
          "type": "uint256"
        },
        {
          "internalType": "bool",
          "name": "_support",
          "type": "bool"
        }
      ],
      "name": "vote",
      "outputs": [],
      "stateMutability": "nonpayable",
      "type": "function"
    }
  ],
  "bytecode": "0x60a06040523480156200001157600080fd5b5060405162001edf38038062001edf83398181016040528101906200003791906200041f565b600073ffffffffffffffffffffffffffffffffffffffff168773ffffffffffffffffffffffffffffffffffffffff1614806200009f5750600073ffffffffffffffffffffffffffffffffffffffff168673ffffffffffffffffffffffffffffffffffffffff16145b80620000d75750600073ffffffffffffffffffffffffffffffffffffffff168573ffffffffffffffffffffffffffffffffffffffff16145b806200010f5750600073ffffffffffffffffffffffffffffffffffffffff168473ffffffffffffffffffffffffffffffffffffffff16145b80620001475750600073ffffffffffffffffffffffffffffffffffffffff168373ffffffffffffffffffffffffffffffffffffffff16145b806200017f5750600073ffffffffffffffffffffffffffffffffffffffff168273ffffffffffffffffffffffffffffffffffffffff16145b80620001b75750600073ffffffffffffffffffffffffffffffffffffffff168173ffffffffffffffffffffffffffffffffffffffff16145b15620001ef576040517fe6c4247b00000000000000000000000000000000000000000000000000000000815260040160405180910390fd5b8673ffffffffffffffffffffffffffffffffffffffff1660808173ffffffffffffffffffffffffffffffffffffffff1681525050856000806101000a81548173ffffffffffffffffffffffffffffffffffffffff021916908373ffffffffffffffffffffffffffffffffffffffff16021790555084600160006101000a81548173ffffffffffffffffffffffffffffffffffffffff021916908373ffffffffffffffffffffffffffffffffffffffff16021790555083600260006101000a81548173ffffffffffffffffffffffffffffffffffffffff021916908373ffffffffffffffffffffffffffffffffffffffff16021790555082600360006101000a81548173ffffffffffffffffffffffffffffffffffffffff021916908373ffffffffffffffffffffffffffffffffffffffff16021790555081600460006101000a81548173ffffffffffffffffffffffffffffffffffffffff021916908373ffffffffffffffffffffffffffffffffffffffff16021790555080600560006101000a81548173ffffffffffffffffffffffffffffffffffffffff021916908373ffffffffffffffffffffffffffffffffffffffff16021790555050505050505050620004d2565b600080fd5b600073ffffffffffffffffffffffffffffffffffffffff82169050919050565b6000620003e782620003ba565b9050919050565b620003f981620003da565b81146200040557600080fd5b50565b6000815190506200041981620003ee565b92915050565b600080600080600080600060e0888a031215620004415762000440620003b5565b5b6000620004518a828b0162000408565b9750506020620004648a828b0162000408565b9650506040620004778a828b0162000408565b95505060606200048a8a828b0162000408565b94505060806200049d8a828b0162000408565b93505060a0620004b08a828b0162000408565b92505060c0620004c38a828b0162000408565b91505092959891949750929550565b6080516119e3620004fc6000396000818161066801528181610889015261110d01526119e36000f3fe6080604052600436106100f35760003560e01c80638e48807e1161008a578063d1b85b4911610059578063d1b85b49146102bf578063d6cec134146102e8578063f0dda65c14610313578063fc0c546a1461033c576100f3565b80638e48807e1461024c578063a028699e14610263578063c9d27afe1461028c578063d0febe4c146102b5576100f3565b806365e481e2116100c657806365e481e2146101905780637a9024bd146101cd57806389035730146101f65780638da5cb5b14610221576100f3565b806302f89be2146100f85780631e96ea931461012357806339b70e381461013a5780634cf088d914610165575b600080fd5b34801561010457600080fd5b5061010d610367565b60405161011a91906113e4565b60405180910390f35b34801561012f57600080fd5b5061013861038d565b005b34801561014657600080fd5b5061014f61049c565b60405161015c9190611420565b60405180910390f35b34801561017157600080fd5b5061017a6104c2565b604051610187919061145c565b60405180910390f35b34801561019c57600080fd5b506101b760048036038101906101b291906114e6565b6104e8565b6040516101c49190611580565b60405180910390f35b3480156101d957600080fd5b506101f460048036038101906101ef91906115d9565b610666565b005b34801561020257600080fd5b5061020b610861565b6040516102189190611627565b60405180910390f35b34801561022d57600080fd5b50610236610887565b6040516102439190611651565b60405180910390f35b34801561025857600080fd5b506102616108ab565b005b34801561026f57600080fd5b5061028a60048036038101906102859190611698565b6109ba565b005b34801561029857600080fd5b506102b360048036038101906102ae91906116fd565b610b93565b005b6102bd610ca8565b005b3480156102cb57600080fd5b506102e660048036038101906102e19190611698565b610f0c565b005b3480156102f457600080fd5b506102fd6110e5565b60405161030a919061175e565b60405180910390f35b34801561031f57600080fd5b5061033a60048036038101906103359190611779565b61110b565b005b34801561034857600080fd5b50610351611341565b60405161035e91906117da565b60405180910390f35b600260009054906101000a900473ffffffffffffffffffffffffffffffffffffffff1681565b600560009054906101000a900473ffffffffffffffffffffffffffffffffffffffff1673ffffffffffffffffffffffffffffffffffffffff16630cb7afa26040518163ffffffff1660e01b815260040160006040518083038186803b1580156103f557600080fd5b505afa158015610409573d6000803e3d6000fd5b50505050600160009054906101000a900473ffffffffffffffffffffffffffffffffffffffff1673ffffffffffffffffffffffffffffffffffffffff1663c3caab3f336040518263ffffffff1660e01b81526004016104689190611651565b600060405180830381600087803b15801561048257600080fd5b505af1158015610496573d6000803e3d6000fd5b50505050565b600360009054906101000a900473ffffffffffffffffffffffffffffffffffffffff1681565b600160009054906101000a900473ffffffffffffffffffffffffffffffffffffffff1681565b6000600560009054906101000a900473ffffffffffffffffffffffffffffffffffffffff1673ffffffffffffffffffffffffffffffffffffffff16630cb7afa26040518163ffffffff1660e01b815260040160006040518083038186803b15801561055257600080fd5b505afa158015610566573d6000803e3d6000fd5b50505050600085859050148061057f5750600083839050145b156105b6576040517fecd7b0d100000000000000000000000000000000000000000000000000000000815260040160405180910390fd5b600260009054906101000a900473ffffffffffffffffffffffffffffffffffffffff1673ffffffffffffffffffffffffffffffffffffffff1663ca57fc2d33878787876040518663ffffffff1660e01b8152600401610619959493929190611853565b6020604051808303816000875af1158015610638573d6000803e3d6000fd5b505050506040513d601f19601f8201168201806040525081019061065c91906118b1565b9050949350505050565b7f000000000000000000000000000000000000000000000000000000000000000073ffffffffffffffffffffffffffffffffffffffff163373ffffffffffffffffffffffffffffffffffffffff16146106eb576040517f30cd747100000000000000000000000000000000000000000000000000000000815260040160405180910390fd5b600560009054906101000a900473ffffffffffffffffffffffffffffffffffffffff1673ffffffffffffffffffffffffffffffffffffffff16630cb7afa26040518163ffffffff1660e01b815260040160006040518083038186803b15801561075357600080fd5b505afa158015610767573d6000803e3d6000fd5b50505050600073ffffffffffffffffffffffffffffffffffffffff168173ffffffffffffffffffffffffffffffffffffffff16036107d1576040517fe6c4247b00000000000000000000000000000000000000000000000000000000815260040160405180910390fd5b600360009054906101000a900473ffffffffffffffffffffffffffffffffffffffff1673ffffffffffffffffffffffffffffffffffffffff166333a100ca826040518263ffffffff1660e01b815260040161082c9190611651565b600060405180830381600087803b15801561084657600080fd5b505af115801561085a573d6000803e3d6000fd5b5050505050565b600460009054906101000a900473ffffffffffffffffffffffffffffffffffffffff1681565b7f000000000000000000000000000000000000000000000000000000000000000081565b600560009054906101000a900473ffffffffffffffffffffffffffffffffffffffff1673ffffffffffffffffffffffffffffffffffffffff16630cb7afa26040518163ffffffff1660e01b815260040160006040518083038186803b15801561091357600080fd5b505afa158015610927573d6000803e3d6000fd5b50505050600160009054906101000a900473ffffffffffffffffffffffffffffffffffffffff1673ffffffffffffffffffffffffffffffffffffffff1663bd080ea9336040518263ffffffff1660e01b81526004016109869190611651565b600060405180830381600087803b1580156109a057600080fd5b505af11580156109b4573d6000803e3d6000fd5b50505050565b600560009054906101000a900473ffffffffffffffffffffffffffffffffffffffff1673ffffffffffffffffffffffffffffffffffffffff16630cb7afa26040518163ffffffff1660e01b815260040160006040518083038186803b158015610a2257600080fd5b505afa158015610a36573d6000803e3d6000fd5b5050505060008103610a74576040517f1f2a200500000000000000000000000000000000000000000000000000000000815260040160405180910390fd5b60008054906101000a900473ffffffffffffffffffffffffffffffffffffffff1673ffffffffffffffffffffffffffffffffffffffff16639dc29fac33836040518363ffffffff1660e01b8152600401610acf9291906118de565b600060405180830381600087803b158015610ae957600080fd5b505af1158015610afd573d6000803e3d6000fd5b50505050600160009054906101000a900473ffffffffffffffffffffffffffffffffffffffff1673ffffffffffffffffffffffffffffffffffffffff16630f1e216233836040518363ffffffff1660e01b8152600401610b5e9291906118de565b600060405180830381600087803b158015610b7857600080fd5b505af1158015610b8c573d6000803e3d6000fd5b5050505050565b600560009054906101000a900473ffffffffffffffffffffffffffffffffffffffff1673ffffffffffffffffffffffffffffffffffffffff16630cb7afa26040518163ffffffff1660e01b815260040160006040518083038186803b158015610bfb57600080fd5b505afa158015610c0f573d6000803e3d6000fd5b50505050600260009054906101000a900473ffffffffffffffffffffffffffffffffffffffff1673ffffffffffffffffffffffffffffffffffffffff1663e2cdd42a8333846040518463ffffffff1660e01b8152600401610c7293929190611916565b600060405180830381600087803b158015610c8c57600080fd5b505af1158015610ca0573d6000803e3d6000fd5b505050505050565b600560009054906101000a900473ffffffffffffffffffffffffffffffffffffffff1673ffffffffffffffffffffffffffffffffffffffff16630cb7afa26040518163ffffffff1660e01b815260040160006040518083038186803b158015610d1057600080fd5b505afa158015610d24573d6000803e3d6000fd5b505050506000600460009054906101000a900473ffffffffffffffffffffffffffffffffffffffff1673ffffffffffffffffffffffffffffffffffffffff16637ff9b5966040518163ffffffff1660e01b8152600401602060405180830381865afa158015610d97573d6000803e3d6000fd5b505050506040513d601f19601f82011682018060405250810190610dbb91906118b1565b905060008103610df7576040517f4dfba02300000000000000000000000000000000000000000000000000000000815260040160405180910390fd5b80341015610e31576040517f6a12f10400000000000000000000000000000000000000000000000000000000815260040160405180910390fd5b60008134610e3f919061197c565b905060008103610e7b576040517f1f2a200500000000000000000000000000000000000000000000000000000000815260040160405180910390fd5b60008054906101000a900473ffffffffffffffffffffffffffffffffffffffff1673ffffffffffffffffffffffffffffffffffffffff166340c10f1933836040518363ffffffff1660e01b8152600401610ed69291906118de565b600060405180830381600087803b158015610ef057600080fd5b505af1158015610f04573d6000803e3d6000fd5b505050505050565b600560009054906101000a900473ffffffffffffffffffffffffffffffffffffffff1673ffffffffffffffffffffffffffffffffffffffff16630cb7afa26040518163ffffffff1660e01b815260040160006040518083038186803b158015610f7457600080fd5b505afa158015610f88573d6000803e3d6000fd5b5050505060008103610fc6576040517f1f2a200500000000000000000000000000000000000000000000000000000000815260040160405180910390fd5b60008054906101000a900473ffffffffffffffffffffffffffffffffffffffff1673ffffffffffffffffffffffffffffffffffffffff16639dc29fac33836040518363ffffffff1660e01b81526004016110219291906118de565b600060405180830381600087803b15801561103b57600080fd5b505af115801561104f573d6000803e3d6000fd5b50505050600160009054906101000a900473ffffffffffffffffffffffffffffffffffffffff1673ffffffffffffffffffffffffffffffffffffffff166320eae7c333836040518363ffffffff1660e01b81526004016110b09291906118de565b600060405180830381600087803b1580156110ca57600080fd5b505af11580156110de573d6000803e3d6000fd5b5050505050565b600560009054906101000a900473ffffffffffffffffffffffffffffffffffffffff1681565b7f000000000000000000000000000000000000000000000000000000000000000073ffffffffffffffffffffffffffffffffffffffff163373ffffffffffffffffffffffffffffffffffffffff1614611190576040517f30cd747100000000000000000000000000000000000000000000000000000000815260040160405180910390fd5b600560009054906101000a900473ffffffffffffffffffffffffffffffffffffffff1673ffffffffffffffffffffffffffffffffffffffff16630cb7afa26040518163ffffffff1660e01b815260040160006040518083038186803b1580156111f857600080fd5b505afa15801561120c573d6000803e3d6000fd5b50505050600073ffffffffffffffffffffffffffffffffffffffff168273ffffffffffffffffffffffffffffffffffffffff1603611276576040517fe6c4247b00000000000000000000000000000000000000000000000000000000815260040160405180910390fd5b600081036112b0576040517f1f2a200500000000000000000000000000000000000000000000000000000000815260040160405180910390fd5b60008054906101000a900473ffffffffffffffffffffffffffffffffffffffff1673ffffffffffffffffffffffffffffffffffffffff166340c10f1983836040518363ffffffff1660e01b815260040161130b9291906118de565b600060405180830381600087803b15801561132557600080fd5b505af1158015611339573d6000803e3d6000fd5b505050505050565b60008054906101000a900473ffffffffffffffffffffffffffffffffffffffff1681565b600073ffffffffffffffffffffffffffffffffffffffff82169050919050565b6000819050919050565b60006113aa6113a56113a084611365565b611385565b611365565b9050919050565b60006113bc8261138f565b9050919050565b60006113ce826113b1565b9050919050565b6113de816113c3565b82525050565b60006020820190506113f960008301846113d5565b92915050565b600061140a826113b1565b9050919050565b61141a816113ff565b82525050565b60006020820190506114356000830184611411565b92915050565b6000611446826113b1565b9050919050565b6114568161143b565b82525050565b6000602082019050611471600083018461144d565b92915050565b600080fd5b600080fd5b600080fd5b600080fd5b600080fd5b60008083601f8401126114a6576114a5611481565b5b8235905067ffffffffffffffff8111156114c3576114c2611486565b5b6020830191508360018202830111156114df576114de61148b565b5b9250929050565b60008060008060408587031215611500576114ff611477565b5b600085013567ffffffffffffffff81111561151e5761151d61147c565b5b61152a87828801611490565b9450945050602085013567ffffffffffffffff81111561154d5761154c61147c565b5b61155987828801611490565b925092505092959194509250565b6000819050919050565b61157a81611567565b82525050565b60006020820190506115956000830184611571565b92915050565b60006115a682611365565b9050919050565b6115b68161159b565b81146115c157600080fd5b50565b6000813590506115d3816115ad565b92915050565b6000602082840312156115ef576115ee611477565b5b60006115fd848285016115c4565b91505092915050565b6000611611826113b1565b9050919050565b61162181611606565b82525050565b600060208201905061163c6000830184611618565b92915050565b61164b8161159b565b82525050565b60006020820190506116666000830184611642565b92915050565b61167581611567565b811461168057600080fd5b50565b6000813590506116928161166c565b92915050565b6000602082840312156116ae576116ad611477565b5b60006116bc84828501611683565b91505092915050565b60008115159050919050565b6116da816116c5565b81146116e557600080fd5b50565b6000813590506116f7816116d1565b92915050565b6000806040838503121561171457611713611477565b5b600061172285828601611683565b9250506020611733858286016116e8565b9150509250929050565b6000611748826113b1565b9050919050565b6117588161173d565b82525050565b6000602082019050611773600083018461174f565b92915050565b600080604083850312156117905761178f611477565b5b600061179e858286016115c4565b92505060206117af85828601611683565b9150509250929050565b60006117c4826113b1565b9050919050565b6117d4816117b9565b82525050565b60006020820190506117ef60008301846117cb565b92915050565b600082825260208201905092915050565b82818337600083830152505050565b6000601f19601f8301169050919050565b600061183283856117f5565b935061183f838584611806565b61184883611815565b840190509392505050565b60006060820190506118686000830188611642565b818103602083015261187b818688611826565b90508181036040830152611890818486611826565b90509695505050505050565b6000815190506118ab8161166c565b92915050565b6000602082840312156118c7576118c6611477565b5b60006118d58482850161189c565b91505092915050565b60006040820190506118f36000830185611642565b6119006020830184611571565b9392505050565b611910816116c5565b82525050565b600060608201905061192b6000830186611571565b6119386020830185611642565b6119456040830184611907565b949350505050565b7f4e487b7100000000000000000000000000000000000000000000000000000000600052601260045260246000fd5b600061198782611567565b915061199283611567565b9250826119a2576119a161194d565b5b82820490509291505056fea2646970667358221220007822dea16f00cf3985052dd61057d46cc53cb35b73a06b420365b7e272fce464736f6c63430008140033",
  "linkReferences": {},
  "deployedLinkReferences": {}
}