{
  "_format": "hh-sol-artifact-1",
  "contractName": "Parameters",
  "sourceName": "contracts/Parameteres.sol",
  "abi": [
    {
      "inputs": [
        {
          "internalType": "address",
          "name": "daoOwner",
          "type": "address"
        }
      ],
      "stateMutability": "nonpayable",
      "type": "constructor"
    },
    {
      "inputs": [
        {
          "internalType": "address",
          "name": "owner",
          "type": "address"
        }
      ],
      "name": "OwnableInvalidOwner",
      "type": "error"
    },
    {
      "inputs": [
        {
          "internalType": "address",
          "name": "account",
          "type": "address"
        }
      ],
      "name": "OwnableUnauthorizedAccount",
      "type": "error"
    },
    {
      "anonymous": false,
      "inputs": [
        {
          "indexed": false,
          "internalType": "uint256",
          "name": "oldValue",
          "type": "uint256"
        },
        {
          "indexed": false,
          "internalType": "uint256",
          "name": "newValue",
          "type": "uint256"
        }
      ],
      "name": "MinStakeForProposingChanged",
      "type": "event"
    },
    {
      "anonymous": false,
      "inputs": [
        {
          "indexed": false,
          "internalType": "uint256",
          "name": "oldValue",
          "type": "uint256"
        },
        {
          "indexed": false,
          "internalType": "uint256",
          "name": "newValue",
          "type": "uint256"
        }
      ],
      "name": "MinStakeForVotingChanged",
      "type": "event"
    },
    {
      "anonymous": false,
      "inputs": [
        {
          "indexed": true,
          "internalType": "address",
          "name": "previousOwner",
          "type": "address"
        },
        {
          "indexed": true,
          "internalType": "address",
          "name": "newOwner",
          "type": "address"
        }
      ],
      "name": "OwnershipTransferred",
      "type": "event"
    },
    {
      "anonymous": false,
      "inputs": [
        {
          "indexed": false,
          "internalType": "uint256",
          "name": "oldValue",
          "type": "uint256"
        },
        {
          "indexed": false,
          "internalType": "uint256",
          "name": "newValue",
          "type": "uint256"
        }
      ],
      "name": "ProposalDurationChanged",
      "type": "event"
    },
    {
      "anonymous": false,
      "inputs": [
        {
          "indexed": false,
          "internalType": "uint256",
          "name": "oldValue",
          "type": "uint256"
        },
        {
          "indexed": false,
          "internalType": "uint256",
          "name": "newValue",
          "type": "uint256"
        }
      ],
      "name": "StakingLockTimeChanged",
      "type": "event"
    },
    {
      "anonymous": false,
      "inputs": [
        {
          "indexed": false,
          "internalType": "uint256",
          "name": "oldValue",
          "type": "uint256"
        },
        {
          "indexed": false,
          "internalType": "uint256",
          "name": "newValue",
          "type": "uint256"
        }
      ],
      "name": "TokenPriceChanged",
      "type": "event"
    },
    {
      "anonymous": false,
      "inputs": [
        {
          "indexed": false,
          "internalType": "uint256",
          "name": "oldValue",
          "type": "uint256"
        },
        {
          "indexed": false,
          "internalType": "uint256",
          "name": "newValue",
          "type": "uint256"
        }
      ],
      "name": "TokensPerVotingPowerChanged",
      "type": "event"
    },
    {
      "inputs": [],
      "name": "minStakeForProposing",
      "outputs": [
        {
          "internalType": "uint256",
          "name": "",
          "type": "uint256"
        }
      ],
      "stateMutability": "view",
      "type": "function"
    },
    {
      "inputs": [],
      "name": "minStakeForVoting",
      "outputs": [
        {
          "internalType": "uint256",
          "name": "",
          "type": "uint256"
        }
      ],
      "stateMutability": "view",
      "type": "function"
    },
    {
      "inputs": [],
      "name": "owner",
      "outputs": [
        {
          "internalType": "address",
          "name": "",
          "type": "address"
        }
      ],
      "stateMutability": "view",
      "type": "function"
    },
    {
      "inputs": [],
      "name": "proposalDuration",
      "outputs": [
        {
          "internalType": "uint256",
          "name": "",
          "type": "uint256"
        }
      ],
      "stateMutability": "view",
      "type": "function"
    },
    {
      "inputs": [],
      "name": "renounceOwnership",
      "outputs": [],
      "stateMutability": "nonpayable",
      "type": "function"
    },
    {
      "inputs": [
        {
          "internalType": "uint256",
          "name": "value",
          "type": "uint256"
        }
      ],
      "name": "setMinStakeForProposing",
      "outputs": [],
      "stateMutability": "nonpayable",
      "type": "function"
    },
    {
      "inputs": [
        {
          "internalType": "uint256",
          "name": "value",
          "type": "uint256"
        }
      ],
      "name": "setMinStakeForVoting",
      "outputs": [],
      "stateMutability": "nonpayable",
      "type": "function"
    },
    {
      "inputs": [
        {
          "internalType": "uint256",
          "name": "value",
          "type": "uint256"
        }
      ],
      "name": "setProposalDuration",
      "outputs": [],
      "stateMutability": "nonpayable",
      "type": "function"
    },
    {
      "inputs": [
        {
          "internalType": "uint256",
          "name": "value",
          "type": "uint256"
        }
      ],
      "name": "setStakingLockTime",
      "outputs": [],
      "stateMutability": "nonpayable",
      "type": "function"
    },
    {
      "inputs": [
        {
          "internalType": "uint256",
          "name": "value",
          "type": "uint256"
        }
      ],
      "name": "setTokenPrice",
      "outputs": [],
      "stateMutability": "nonpayable",
      "type": "function"
    },
    {
      "inputs": [
        {
          "internalType": "uint256",
          "name": "value",
          "type": "uint256"
        }
      ],
      "name": "setTokensPerVotingPower",
      "outputs": [],
      "stateMutability": "nonpayable",
      "type": "function"
    },
    {
      "inputs": [],
      "name": "stakingLockTime",
      "outputs": [
        {
          "internalType": "uint256",
          "name": "",
          "type": "uint256"
        }
      ],
      "stateMutability": "view",
      "type": "function"
    },
    {
      "inputs": [],
      "name": "tokenPrice",
      "outputs": [
        {
          "internalType": "uint256",
          "name": "",
          "type": "uint256"
        }
      ],
      "stateMutability": "view",
      "type": "function"
    },
    {
      "inputs": [],
      "name": "tokensPerVotingPower",
      "outputs": [
        {
          "internalType": "uint256",
          "name": "",
          "type": "uint256"
        }
      ],
      "stateMutability": "view",
      "type": "function"
    },
    {
      "inputs": [
        {
          "internalType": "address",
          "name": "newOwner",
          "type": "address"
        }
      ],
      "name": "transferOwnership",
      "outputs": [],
      "stateMutability": "nonpayable",
      "type": "function"
    }
  ],
  "bytecode": "0x60806040523480156200001157600080fd5b5060405162000ba138038062000ba1833981810160405281019062000037919062000266565b80600073ffffffffffffffffffffffffffffffffffffffff168173ffffffffffffffffffffffffffffffffffffffff1603620000ad5760006040517f1e4fbdf7000000000000000000000000000000000000000000000000000000008152600401620000a49190620002a9565b60405180910390fd5b620000be816200013860201b60201c565b50600073ffffffffffffffffffffffffffffffffffffffff168173ffffffffffffffffffffffffffffffffffffffff160362000131576040517f08c379a0000000000000000000000000000000000000000000000000000000008152600401620001289062000327565b60405180910390fd5b5062000349565b60008060009054906101000a900473ffffffffffffffffffffffffffffffffffffffff169050816000806101000a81548173ffffffffffffffffffffffffffffffffffffffff021916908373ffffffffffffffffffffffffffffffffffffffff1602179055508173ffffffffffffffffffffffffffffffffffffffff168173ffffffffffffffffffffffffffffffffffffffff167f8be0079c531659141344cd1fd0a4f28419497f9722a3daafe3b4186f6b6457e060405160405180910390a35050565b600080fd5b600073ffffffffffffffffffffffffffffffffffffffff82169050919050565b60006200022e8262000201565b9050919050565b620002408162000221565b81146200024c57600080fd5b50565b600081519050620002608162000235565b92915050565b6000602082840312156200027f576200027e620001fc565b5b60006200028f848285016200024f565b91505092915050565b620002a38162000221565b82525050565b6000602082019050620002c0600083018462000298565b92915050565b600082825260208201905092915050565b7f4f776e65722063616e6e6f74206265207a65726f000000000000000000000000600082015250565b60006200030f601483620002c6565b91506200031c82620002d7565b602082019050919050565b60006020820190508181036000830152620003428162000300565b9050919050565b61084880620003596000396000f3fe608060405234801561001057600080fd5b50600436106100f55760003560e01c8063715018a611610097578063aa110e9511610066578063aa110e9514610226578063c2d6677614610242578063dc53a70914610260578063f2fde38b1461027e576100f5565b8063715018a6146101c45780637d007ac1146101ce5780637ff9b596146101ea5780638da5cb5b14610208576100f5565b806343a82dcf116100d357806343a82dcf14610152578063504bba001461016e5780636a61e5fc1461018a5780636ee7ee55146101a6576100f5565b80630d346e9a146100fa57806330109962146101185780633b6b573914610136575b600080fd5b61010261029a565b60405161010f91906106bb565b60405180910390f35b6101206102a0565b60405161012d91906106bb565b60405180910390f35b610150600480360381019061014b9190610707565b6102a6565b005b61016c60048036038101906101679190610707565b6102f3565b005b61018860048036038101906101839190610707565b610340565b005b6101a4600480360381019061019f9190610707565b61038d565b005b6101ae6103da565b6040516101bb91906106bb565b60405180910390f35b6101cc6103e0565b005b6101e860048036038101906101e39190610707565b6103f4565b005b6101f2610441565b6040516101ff91906106bb565b60405180910390f35b610210610447565b60405161021d9190610775565b60405180910390f35b610240600480360381019061023b9190610707565b610470565b005b61024a6104bd565b60405161025791906106bb565b60405180910390f35b6102686104c3565b60405161027591906106bb565b60405180910390f35b610298600480360381019061029391906107bc565b6104c9565b005b60035481565b60055481565b6102ae61054f565b7f6847fa6082dc1ee54cedcde9d1aec0ecd005cd0b2e7ea5682f4f737b599a364d600454826040516102e19291906107e9565b60405180910390a18060048190555050565b6102fb61054f565b7f1b4348b138e409a2b8d7136d6c29167f4f0158832e83dc4502ffcbb96c06a6836002548260405161032e9291906107e9565b60405180910390a18060028190555050565b61034861054f565b7feda960b74c79e445068bbeebfec7b21dfaaaf0fc8216af70ce774bcac307e94f6001548260405161037b9291906107e9565b60405180910390a18060018190555050565b61039561054f565b7f23c6ec2e2c4752cf5eafabbd0ae9246dce6d5c78f1ed2fde615826e084eee068600654826040516103c89291906107e9565b60405180910390a18060068190555050565b60045481565b6103e861054f565b6103f260006105d6565b565b6103fc61054f565b7f8f692b2ab3f46e4d4cb9d3f287e43970e2f065dceb4016619efa662a69be46ee6005548260405161042f9291906107e9565b60405180910390a18060058190555050565b60065481565b60008060009054906101000a900473ffffffffffffffffffffffffffffffffffffffff16905090565b61047861054f565b7f6e38d6ab67ec77cde00956c3500f576f9050adb9b80321110461a08b83a7e0f2600354826040516104ab9291906107e9565b60405180910390a18060038190555050565b60025481565b60015481565b6104d161054f565b600073ffffffffffffffffffffffffffffffffffffffff168173ffffffffffffffffffffffffffffffffffffffff16036105435760006040517f1e4fbdf700000000000000000000000000000000000000000000000000000000815260040161053a9190610775565b60405180910390fd5b61054c816105d6565b50565b61055761069a565b73ffffffffffffffffffffffffffffffffffffffff16610575610447565b73ffffffffffffffffffffffffffffffffffffffff16146105d45761059861069a565b6040517f118cdaa70000000000000000000000000000000000000000000000000000000081526004016105cb9190610775565b60405180910390fd5b565b60008060009054906101000a900473ffffffffffffffffffffffffffffffffffffffff169050816000806101000a81548173ffffffffffffffffffffffffffffffffffffffff021916908373ffffffffffffffffffffffffffffffffffffffff1602179055508173ffffffffffffffffffffffffffffffffffffffff168173ffffffffffffffffffffffffffffffffffffffff167f8be0079c531659141344cd1fd0a4f28419497f9722a3daafe3b4186f6b6457e060405160405180910390a35050565b600033905090565b6000819050919050565b6106b5816106a2565b82525050565b60006020820190506106d060008301846106ac565b92915050565b600080fd5b6106e4816106a2565b81146106ef57600080fd5b50565b600081359050610701816106db565b92915050565b60006020828403121561071d5761071c6106d6565b5b600061072b848285016106f2565b91505092915050565b600073ffffffffffffffffffffffffffffffffffffffff82169050919050565b600061075f82610734565b9050919050565b61076f81610754565b82525050565b600060208201905061078a6000830184610766565b92915050565b61079981610754565b81146107a457600080fd5b50565b6000813590506107b681610790565b92915050565b6000602082840312156107d2576107d16106d6565b5b60006107e0848285016107a7565b91505092915050565b60006040820190506107fe60008301856106ac565b61080b60208301846106ac565b939250505056fea26469706673582212202610eb65611c133ef81fb8963a027dd0321aa0cbd871a54b400f368412243bb464736f6c63430008140033",
  "linkReferences": {},
  "deployedLinkReferences": {}
}