{
  "_format": "hh-sol-artifact-1",
  "contractName": "ProposalManager",
  "sourceName": "contracts/ProposalManager.sol",
  "abi": [
    {
      "inputs": [
        {
          "internalType": "address",
          "name": "_votingStrategy",
          "type": "address"
        },
        {
          "internalType": "uint256",
          "name": "_minVotingPowerToPropose",
          "type": "uint256"
        },
        {
          "internalType": "uint256",
          "name": "_defaultProposalDuration",
          "type": "uint256"
        }
      ],
      "stateMutability": "nonpayable",
      "type": "constructor"
    },
    {
      "inputs": [],
      "name": "AlreadyVoted",
      "type": "error"
    },
    {
      "inputs": [],
      "name": "DeadlineNotPassed",
      "type": "error"
    },
    {
      "inputs": [],
      "name": "EmptyDescription",
      "type": "error"
    },
    {
      "inputs": [],
      "name": "EmptyTitle",
      "type": "error"
    },
    {
      "inputs": [],
      "name": "InsufficientVotingPower",
      "type": "error"
    },
    {
      "inputs": [],
      "name": "InvalidAddress",
      "type": "error"
    },
    {
      "inputs": [],
      "name": "InvalidDuration",
      "type": "error"
    },
    {
      "inputs": [],
      "name": "InvalidVoteType",
      "type": "error"
    },
    {
      "inputs": [],
      "name": "InvalidVotingStrategy",
      "type": "error"
    },
    {
      "inputs": [],
      "name": "NotVotedYet",
      "type": "error"
    },
    {
      "inputs": [
        {
          "internalType": "address",
          "name": "owner",
          "type": "address"
        }
      ],
      "name": "OwnableInvalidOwner",
      "type": "error"
    },
    {
      "inputs": [
        {
          "internalType": "address",
          "name": "account",
          "type": "address"
        }
      ],
      "name": "OwnableUnauthorizedAccount",
      "type": "error"
    },
    {
      "inputs": [],
      "name": "ProposalDeadlinePassed",
      "type": "error"
    },
    {
      "inputs": [],
      "name": "ProposalNotActive",
      "type": "error"
    },
    {
      "inputs": [],
      "name": "ProposalNotFound",
      "type": "error"
    },
    {
      "inputs": [],
      "name": "ReentrancyGuardReentrantCall",
      "type": "error"
    },
    {
      "anonymous": false,
      "inputs": [
        {
          "indexed": true,
          "internalType": "address",
          "name": "previousOwner",
          "type": "address"
        },
        {
          "indexed": true,
          "internalType": "address",
          "name": "newOwner",
          "type": "address"
        }
      ],
      "name": "OwnershipTransferred",
      "type": "event"
    },
    {
      "anonymous": false,
      "inputs": [
        {
          "indexed": true,
          "internalType": "uint256",
          "name": "proposalId",
          "type": "uint256"
        },
        {
          "indexed": true,
          "internalType": "address",
          "name": "proposer",
          "type": "address"
        },
        {
          "indexed": false,
          "internalType": "string",
          "name": "title",
          "type": "string"
        },
        {
          "indexed": false,
          "internalType": "uint256",
          "name": "deadline",
          "type": "uint256"
        }
      ],
      "name": "ProposalCreated",
      "type": "event"
    },
    {
      "anonymous": false,
      "inputs": [
        {
          "indexed": true,
          "internalType": "uint256",
          "name": "proposalId",
          "type": "uint256"
        },
        {
          "indexed": false,
          "internalType": "enum ProposalState",
          "name": "oldState",
          "type": "uint8"
        },
        {
          "indexed": false,
          "internalType": "enum ProposalState",
          "name": "newState",
          "type": "uint8"
        }
      ],
      "name": "ProposalStateChanged",
      "type": "event"
    },
    {
      "anonymous": false,
      "inputs": [
        {
          "indexed": true,
          "internalType": "uint256",
          "name": "proposalId",
          "type": "uint256"
        },
        {
          "indexed": true,
          "internalType": "address",
          "name": "voter",
          "type": "address"
        },
        {
          "indexed": false,
          "internalType": "enum VoteType",
          "name": "voteType",
          "type": "uint8"
        },
        {
          "indexed": false,
          "internalType": "uint256",
          "name": "weight",
          "type": "uint256"
        }
      ],
      "name": "VoteCasted",
      "type": "event"
    },
    {
      "anonymous": false,
      "inputs": [
        {
          "indexed": false,
          "internalType": "address",
          "name": "oldAddress",
          "type": "address"
        },
        {
          "indexed": false,
          "internalType": "address",
          "name": "newAddress",
          "type": "address"
        }
      ],
      "name": "VotingStrategyUpdated",
      "type": "event"
    },
    {
      "inputs": [
        {
          "internalType": "uint256",
          "name": "_proposalId",
          "type": "uint256"
        },
        {
          "internalType": "enum VoteType",
          "name": "_newVoteType",
          "type": "uint8"
        },
        {
          "internalType": "uint256",
          "name": "_votingWeight",
          "type": "uint256"
        }
      ],
      "name": "changeVote",
      "outputs": [],
      "stateMutability": "nonpayable",
      "type": "function"
    },
    {
      "inputs": [
        {
          "internalType": "string",
          "name": "_title",
          "type": "string"
        },
        {
          "internalType": "string",
          "name": "_description",
          "type": "string"
        },
        {
          "internalType": "uint256",
          "name": "_votingPower",
          "type": "uint256"
        }
      ],
      "name": "createProposal",
      "outputs": [
        {
          "internalType": "uint256",
          "name": "",
          "type": "uint256"
        }
      ],
      "stateMutability": "nonpayable",
      "type": "function"
    },
    {
      "inputs": [],
      "name": "defaultProposalDuration",
      "outputs": [
        {
          "internalType": "uint256",
          "name": "",
          "type": "uint256"
        }
      ],
      "stateMutability": "view",
      "type": "function"
    },
    {
      "inputs": [
        {
          "internalType": "uint256",
          "name": "_proposalId",
          "type": "uint256"
        }
      ],
      "name": "expireProposal",
      "outputs": [],
      "stateMutability": "nonpayable",
      "type": "function"
    },
    {
      "inputs": [
        {
          "internalType": "uint256",
          "name": "_proposalId",
          "type": "uint256"
        },
        {
          "internalType": "uint256",
          "name": "_totalVotingPower",
          "type": "uint256"
        }
      ],
      "name": "finalizeProposal",
      "outputs": [],
      "stateMutability": "nonpayable",
      "type": "function"
    },
    {
      "inputs": [
        {
          "internalType": "uint256",
          "name": "_proposalId",
          "type": "uint256"
        }
      ],
      "name": "getProposal",
      "outputs": [
        {
          "components": [
            {
              "internalType": "string",
              "name": "title",
              "type": "string"
            },
            {
              "internalType": "string",
              "name": "description",
              "type": "string"
            },
            {
              "internalType": "address",
              "name": "proposer",
              "type": "address"
            },
            {
              "internalType": "uint256",
              "name": "createdAt",
              "type": "uint256"
            },
            {
              "internalType": "uint256",
              "name": "deadline",
              "type": "uint256"
            },
            {
              "internalType": "uint256",
              "name": "votesFor",
              "type": "uint256"
            },
            {
              "internalType": "uint256",
              "name": "votesAgainst",
              "type": "uint256"
            },
            {
              "internalType": "enum ProposalState",
              "name": "state",
              "type": "uint8"
            },
            {
              "internalType": "address",
              "name": "strategyUsed",
              "type": "address"
            }
          ],
          "internalType": "struct Proposal",
          "name": "",
          "type": "tuple"
        }
      ],
      "stateMutability": "view",
      "type": "function"
    },
    {
      "inputs": [
        {
          "internalType": "uint256",
          "name": "_proposalId",
          "type": "uint256"
        }
      ],
      "name": "getProposalResults",
      "outputs": [
        {
          "internalType": "uint256",
          "name": "votesFor",
          "type": "uint256"
        },
        {
          "internalType": "uint256",
          "name": "votesAgainst",
          "type": "uint256"
        }
      ],
      "stateMutability": "view",
      "type": "function"
    },
    {
      "inputs": [
        {
          "internalType": "uint256",
          "name": "_proposalId",
          "type": "uint256"
        }
      ],
      "name": "getProposalState",
      "outputs": [
        {
          "internalType": "enum ProposalState",
          "name": "",
          "type": "uint8"
        }
      ],
      "stateMutability": "view",
      "type": "function"
    },
    {
      "inputs": [
        {
          "internalType": "uint256",
          "name": "_proposalId",
          "type": "uint256"
        },
        {
          "internalType": "address",
          "name": "_voter",
          "type": "address"
        }
      ],
      "name": "getUserVote",
      "outputs": [
        {
          "internalType": "enum VoteType",
          "name": "",
          "type": "uint8"
        }
      ],
      "stateMutability": "view",
      "type": "function"
    },
    {
      "inputs": [
        {
          "internalType": "uint256",
          "name": "_proposalId",
          "type": "uint256"
        }
      ],
      "name": "hasProposalDeadlinePassed",
      "outputs": [
        {
          "internalType": "bool",
          "name": "",
          "type": "bool"
        }
      ],
      "stateMutability": "view",
      "type": "function"
    },
    {
      "inputs": [
        {
          "internalType": "uint256",
          "name": "_proposalId",
          "type": "uint256"
        },
        {
          "internalType": "address",
          "name": "_voter",
          "type": "address"
        }
      ],
      "name": "hasUserVoted",
      "outputs": [
        {
          "internalType": "bool",
          "name": "",
          "type": "bool"
        }
      ],
      "stateMutability": "view",
      "type": "function"
    },
    {
      "inputs": [
        {
          "internalType": "uint256",
          "name": "_proposalId",
          "type": "uint256"
        }
      ],
      "name": "isProposalActive",
      "outputs": [
        {
          "internalType": "bool",
          "name": "",
          "type": "bool"
        }
      ],
      "stateMutability": "view",
      "type": "function"
    },
    {
      "inputs": [],
      "name": "minVotingPowerToPropose",
      "outputs": [
        {
          "internalType": "uint256",
          "name": "",
          "type": "uint256"
        }
      ],
      "stateMutability": "view",
      "type": "function"
    },
    {
      "inputs": [],
      "name": "owner",
      "outputs": [
        {
          "internalType": "address",
          "name": "",
          "type": "address"
        }
      ],
      "stateMutability": "view",
      "type": "function"
    },
    {
      "inputs": [],
      "name": "proposalCount",
      "outputs": [
        {
          "internalType": "uint256",
          "name": "",
          "type": "uint256"
        }
      ],
      "stateMutability": "view",
      "type": "function"
    },
    {
      "inputs": [
        {
          "internalType": "uint256",
          "name": "",
          "type": "uint256"
        }
      ],
      "name": "proposals",
      "outputs": [
        {
          "internalType": "string",
          "name": "title",
          "type": "string"
        },
        {
          "internalType": "string",
          "name": "description",
          "type": "string"
        },
        {
          "internalType": "address",
          "name": "proposer",
          "type": "address"
        },
        {
          "internalType": "uint256",
          "name": "createdAt",
          "type": "uint256"
        },
        {
          "internalType": "uint256",
          "name": "deadline",
          "type": "uint256"
        },
        {
          "internalType": "uint256",
          "name": "votesFor",
          "type": "uint256"
        },
        {
          "internalType": "uint256",
          "name": "votesAgainst",
          "type": "uint256"
        },
        {
          "internalType": "enum ProposalState",
          "name": "state",
          "type": "uint8"
        },
        {
          "internalType": "address",
          "name": "strategyUsed",
          "type": "address"
        }
      ],
      "stateMutability": "view",
      "type": "function"
    },
    {
      "inputs": [],
      "name": "renounceOwnership",
      "outputs": [],
      "stateMutability": "nonpayable",
      "type": "function"
    },
    {
      "inputs": [
        {
          "internalType": "uint256",
          "name": "_newDuration",
          "type": "uint256"
        }
      ],
      "name": "setDefaultProposalDuration",
      "outputs": [],
      "stateMutability": "nonpayable",
      "type": "function"
    },
    {
      "inputs": [
        {
          "internalType": "uint256",
          "name": "_newMinVotingPower",
          "type": "uint256"
        }
      ],
      "name": "setMinVotingPowerToPropose",
      "outputs": [],
      "stateMutability": "nonpayable",
      "type": "function"
    },
    {
      "inputs": [
        {
          "internalType": "address",
          "name": "_newVotingStrategy",
          "type": "address"
        }
      ],
      "name": "setVotingStrategy",
      "outputs": [],
      "stateMutability": "nonpayable",
      "type": "function"
    },
    {
      "inputs": [
        {
          "internalType": "address",
          "name": "newOwner",
          "type": "address"
        }
      ],
      "name": "transferOwnership",
      "outputs": [],
      "stateMutability": "nonpayable",
      "type": "function"
    },
    {
      "inputs": [
        {
          "internalType": "uint256",
          "name": "_proposalId",
          "type": "uint256"
        },
        {
          "internalType": "enum VoteType",
          "name": "_voteType",
          "type": "uint8"
        },
        {
          "internalType": "uint256",
          "name": "_votingWeight",
          "type": "uint256"
        }
      ],
      "name": "vote",
      "outputs": [],
      "stateMutability": "nonpayable",
      "type": "function"
    },
    {
      "inputs": [
        {
          "internalType": "uint256",
          "name": "",
          "type": "uint256"
        },
        {
          "internalType": "address",
          "name": "",
          "type": "address"
        }
      ],
      "name": "votes",
      "outputs": [
        {
          "internalType": "enum VoteType",
          "name": "",
          "type": "uint8"
        }
      ],
      "stateMutability": "view",
      "type": "function"
    },
    {
      "inputs": [],
      "name": "votingStrategy",
      "outputs": [
        {
          "internalType": "contract IVotingStrategy",
          "name": "",
          "type": "address"
        }
      ],
      "stateMutability": "view",
      "type": "function"
    }
  ],
  "bytecode": "0x60806040523480156200001157600080fd5b50604051620031923803806200319283398181016040528101906200003791906200032c565b336001600081905550600073ffffffffffffffffffffffffffffffffffffffff168173ffffffffffffffffffffffffffffffffffffffff1603620000b55760006040517f1e4fbdf7000000000000000000000000000000000000000000000000000000008152600401620000ac919062000399565b60405180910390fd5b620000c681620001c160201b60201c565b50600073ffffffffffffffffffffffffffffffffffffffff168373ffffffffffffffffffffffffffffffffffffffff16036200012e576040517fa950c86e00000000000000000000000000000000000000000000000000000000815260040160405180910390fd5b6000810362000169576040517f7616640100000000000000000000000000000000000000000000000000000000815260040160405180910390fd5b82600260006101000a81548173ffffffffffffffffffffffffffffffffffffffff021916908373ffffffffffffffffffffffffffffffffffffffff1602179055508160068190555080600781905550505050620003b6565b6000600160009054906101000a900473ffffffffffffffffffffffffffffffffffffffff16905081600160006101000a81548173ffffffffffffffffffffffffffffffffffffffff021916908373ffffffffffffffffffffffffffffffffffffffff1602179055508173ffffffffffffffffffffffffffffffffffffffff168173ffffffffffffffffffffffffffffffffffffffff167f8be0079c531659141344cd1fd0a4f28419497f9722a3daafe3b4186f6b6457e060405160405180910390a35050565b600080fd5b600073ffffffffffffffffffffffffffffffffffffffff82169050919050565b6000620002b9826200028c565b9050919050565b620002cb81620002ac565b8114620002d757600080fd5b50565b600081519050620002eb81620002c0565b92915050565b6000819050919050565b6200030681620002f1565b81146200031257600080fd5b50565b6000815190506200032681620002fb565b92915050565b60008060006060848603121562000348576200034762000287565b5b60006200035886828701620002da565b93505060206200036b8682870162000315565b92505060406200037e8682870162000315565b9150509250925092565b6200039381620002ac565b82525050565b6000602082019050620003b0600083018462000388565b92915050565b612dcc80620003c66000396000f3fe608060405234801561001057600080fd5b50600436106101585760003560e01c8063c7f758a8116100c3578063e520251a1161007c578063e520251a14610406578063f2fde38b14610422578063f69c97071461043e578063f80339a81461046e578063f872c6f11461048a578063fb5c8bfd146104a857610158565b8063c7f758a814610320578063d23254b414610350578063d289dcbf14610380578063da35c6641461039c578063dc296ae1146103ba578063e1b526b0146103ea57610158565b8063204e9b5b11610115578063204e9b5b1461025f5780635bdcd0081461027b578063715018a6146102ac5780638da5cb5b146102b65780639080936f146102d4578063a73db8fa1461030457610158565b8063013cf08b1461015d57806303c7881a1461019557806304bb4172146101c55780630ce0ebf4146101e1578063164b3d2f146102115780631911748f14610241575b600080fd5b610177600480360381019061017291906120df565b6104c6565b60405161018c99989796959493929190612263565b60405180910390f35b6101af60048036038101906101aa919061232a565b610671565b6040516101bc91906123b2565b60405180910390f35b6101df60048036038101906101da91906120df565b6106d9565b005b6101fb60048036038101906101f69190612432565b610725565b60405161020891906124c7565b60405180910390f35b61022b600480360381019061022691906120df565b610aae565b60405161023891906124fd565b60405180910390f35b610249610b01565b60405161025691906124c7565b60405180910390f35b6102796004803603810190610274919061253d565b610b07565b005b610295600480360381019061029091906120df565b610f69565b6040516102a3929190612590565b60405180910390f35b6102b4610fe7565b005b6102be610ffb565b6040516102cb91906125b9565b60405180910390f35b6102ee60048036038101906102e991906120df565b611025565b6040516102fb91906125d4565b60405180910390f35b61031e600480360381019061031991906120df565b6110a1565b005b61033a600480360381019061033591906120df565b6110b3565b6040516103479190612732565b60405180910390f35b61036a6004803603810190610365919061232a565b611364565b60405161037791906123b2565b60405180910390f35b61039a60048036038101906103959190612754565b611393565b005b6103a46114a0565b6040516103b191906124c7565b60405180910390f35b6103d460048036038101906103cf919061232a565b6114a6565b6040516103e191906124fd565b60405180910390f35b61040460048036038101906103ff91906120df565b611535565b005b610420600480360381019061041b919061253d565b6116a3565b005b61043c60048036038101906104379190612754565b611a6b565b005b610458600480360381019061045391906120df565b611af1565b60405161046591906124fd565b60405180910390f35b61048860048036038101906104839190612781565b611b62565b005b610492611e44565b60405161049f91906124c7565b60405180910390f35b6104b0611e4a565b6040516104bd9190612820565b60405180910390f35b60036020528060005260406000206000915090508060000180546104e99061286a565b80601f01602080910402602001604051908101604052809291908181526020018280546105159061286a565b80156105625780601f1061053757610100808354040283529160200191610562565b820191906000526020600020905b81548152906001019060200180831161054557829003601f168201915b5050505050908060010180546105779061286a565b80601f01602080910402602001604051908101604052809291908181526020018280546105a39061286a565b80156105f05780601f106105c5576101008083540402835291602001916105f0565b820191906000526020600020905b8154815290600101906020018083116105d357829003601f168201915b5050505050908060020160009054906101000a900473ffffffffffffffffffffffffffffffffffffffff16908060030154908060040154908060050154908060060154908060070160009054906101000a900460ff16908060070160019054906101000a900473ffffffffffffffffffffffffffffffffffffffff16905089565b60006004600084815260200190815260200160002060008373ffffffffffffffffffffffffffffffffffffffff1673ffffffffffffffffffffffffffffffffffffffff16815260200190815260200160002060009054906101000a900460ff16905092915050565b6106e1611e70565b6000810361071b576040517f7616640100000000000000000000000000000000000000000000000000000000815260040160405180910390fd5b8060078190555050565b600061072f611ef7565b6000868690500361076c576040517fa5bb9bde00000000000000000000000000000000000000000000000000000000815260040160405180910390fd5b600084849050036107a9576040517fd937d5df00000000000000000000000000000000000000000000000000000000815260040160405180910390fd5b6006548210156107e5576040517fcabeb65500000000000000000000000000000000000000000000000000000000815260040160405180910390fd5b6000600560008154809291906107fa906128ca565b9190505590506000600754426108109190612912565b905060405180610120016040528089898080601f016020809104026020016040519081016040528093929190818152602001838380828437600081840152601f19601f82011690508083019250505050505050815260200187878080601f016020809104026020016040519081016040528093929190818152602001838380828437600081840152601f19601f8201169050808301925050505050505081526020013373ffffffffffffffffffffffffffffffffffffffff1681526020014281526020018281526020016000815260200160008152602001600060038111156108fc576108fb6121ec565b5b8152602001600073ffffffffffffffffffffffffffffffffffffffff168152506003600084815260200190815260200160002060008201518160000190816109449190612b17565b50602082015181600101908161095a9190612b17565b5060408201518160020160006101000a81548173ffffffffffffffffffffffffffffffffffffffff021916908373ffffffffffffffffffffffffffffffffffffffff160217905550606082015181600301556080820151816004015560a0820151816005015560c0820151816006015560e08201518160070160006101000a81548160ff021916908360038111156109f5576109f46121ec565b5b02179055506101008201518160070160016101000a81548173ffffffffffffffffffffffffffffffffffffffff021916908373ffffffffffffffffffffffffffffffffffffffff1602179055509050503373ffffffffffffffffffffffffffffffffffffffff16827f98120a6aaa04295520ab4e01c6c1235dd316e822cc9ff31db7b3f197366d18bd8a8a85604051610a9093929190612c25565b60405180910390a38192505050610aa5611f3d565b95945050505050565b6000806003811115610ac357610ac26121ec565b5b6003600084815260200190815260200160002060070160009054906101000a900460ff166003811115610af957610af86121ec565b5b149050919050565b60065481565b610b0f611ef7565b60008103610b49576040517f8eed55d100000000000000000000000000000000000000000000000000000000815260040160405180910390fd5b60006003600085815260200190815260200160002090506000816003015403610b9e576040517f635e873700000000000000000000000000000000000000000000000000000000815260040160405180910390fd5b60006003811115610bb257610bb16121ec565b5b8160070160009054906101000a900460ff166003811115610bd657610bd56121ec565b5b14610c0d576040517f7becc13f00000000000000000000000000000000000000000000000000000000815260040160405180910390fd5b8060040154421115610c4b576040517fa8f983eb00000000000000000000000000000000000000000000000000000000815260040160405180910390fd5b60006002811115610c5f57610c5e6121ec565b5b836002811115610c7257610c716121ec565b5b03610ca9576040517f8eed55d100000000000000000000000000000000000000000000000000000000815260040160405180910390fd5b60006004600086815260200190815260200160002060003373ffffffffffffffffffffffffffffffffffffffff1673ffffffffffffffffffffffffffffffffffffffff16815260200190815260200160002060009054906101000a900460ff16905060006002811115610d1f57610d1e6121ec565b5b816002811115610d3257610d316121ec565b5b03610d69576040517fd39263b600000000000000000000000000000000000000000000000000000000815260040160405180910390fd5b60016002811115610d7d57610d7c6121ec565b5b816002811115610d9057610d8f6121ec565b5b03610db55782826005016000828254610da99190612c57565b92505081905550610dfd565b600280811115610dc857610dc76121ec565b5b816002811115610ddb57610dda6121ec565b5b03610dfc5782826006016000828254610df49190612c57565b925050819055505b5b836004600087815260200190815260200160002060003373ffffffffffffffffffffffffffffffffffffffff1673ffffffffffffffffffffffffffffffffffffffff16815260200190815260200160002060006101000a81548160ff02191690836002811115610e7057610e6f6121ec565b5b021790555060016002811115610e8957610e886121ec565b5b846002811115610e9c57610e9b6121ec565b5b03610ec15782826005016000828254610eb59190612912565b92505081905550610f09565b600280811115610ed457610ed36121ec565b5b846002811115610ee757610ee66121ec565b5b03610f085782826006016000828254610f009190612912565b925050819055505b5b3373ffffffffffffffffffffffffffffffffffffffff16857f2c429843b755aefd47bd35f951ec584e567e65542f31d255ff570e130d0dd4048686604051610f52929190612c8b565b60405180910390a35050610f64611f3d565b505050565b6000806000600360008581526020019081526020016000206003015403610fbc576040517f635e873700000000000000000000000000000000000000000000000000000000815260040160405180910390fd5b6000600360008581526020019081526020016000209050806005015481600601549250925050915091565b610fef611e70565b610ff96000611f47565b565b6000600160009054906101000a900473ffffffffffffffffffffffffffffffffffffffff16905090565b600080600360008481526020019081526020016000206003015403611076576040517f635e873700000000000000000000000000000000000000000000000000000000815260040160405180910390fd5b6003600083815260200190815260200160002060070160009054906101000a900460ff169050919050565b6110a9611e70565b8060068190555050565b6110bb612015565b600060036000848152602001908152602001600020600301540361110b576040517f635e873700000000000000000000000000000000000000000000000000000000815260040160405180910390fd5b600360008381526020019081526020016000206040518061012001604052908160008201805461113a9061286a565b80601f01602080910402602001604051908101604052809291908181526020018280546111669061286a565b80156111b35780601f10611188576101008083540402835291602001916111b3565b820191906000526020600020905b81548152906001019060200180831161119657829003601f168201915b505050505081526020016001820180546111cc9061286a565b80601f01602080910402602001604051908101604052809291908181526020018280546111f89061286a565b80156112455780601f1061121a57610100808354040283529160200191611245565b820191906000526020600020905b81548152906001019060200180831161122857829003601f168201915b505050505081526020016002820160009054906101000a900473ffffffffffffffffffffffffffffffffffffffff1673ffffffffffffffffffffffffffffffffffffffff1673ffffffffffffffffffffffffffffffffffffffff168152602001600382015481526020016004820154815260200160058201548152602001600682015481526020016007820160009054906101000a900460ff1660038111156112f1576112f06121ec565b5b6003811115611303576113026121ec565b5b81526020016007820160019054906101000a900473ffffffffffffffffffffffffffffffffffffffff1673ffffffffffffffffffffffffffffffffffffffff1673ffffffffffffffffffffffffffffffffffffffff16815250509050919050565b60046020528160005260406000206020528060005260406000206000915091509054906101000a900460ff1681565b61139b611e70565b600073ffffffffffffffffffffffffffffffffffffffff168173ffffffffffffffffffffffffffffffffffffffff1603611401576040517fa950c86e00000000000000000000000000000000000000000000000000000000815260040160405180910390fd5b7f60fb5f9d3bdeb3278b2612b5fa8256892c50e8db7d33a6121937ad97fba971f7600260009054906101000a900473ffffffffffffffffffffffffffffffffffffffff1682604051611454929190612cb4565b60405180910390a180600260006101000a81548173ffffffffffffffffffffffffffffffffffffffff021916908373ffffffffffffffffffffffffffffffffffffffff16021790555050565b60055481565b60008060028111156114bb576114ba6121ec565b5b6004600085815260200190815260200160002060008473ffffffffffffffffffffffffffffffffffffffff1673ffffffffffffffffffffffffffffffffffffffff16815260200190815260200160002060009054906101000a900460ff16600281111561152b5761152a6121ec565b5b1415905092915050565b6000600360008381526020019081526020016000209050600081600301540361158a576040517f635e873700000000000000000000000000000000000000000000000000000000815260040160405180910390fd5b6000600381111561159e5761159d6121ec565b5b8160070160009054906101000a900460ff1660038111156115c2576115c16121ec565b5b146115f9576040517f7becc13f00000000000000000000000000000000000000000000000000000000815260040160405180910390fd5b80600401544211611636576040517f2eb3543000000000000000000000000000000000000000000000000000000000815260040160405180910390fd5b60038160070160006101000a81548160ff0219169083600381111561165e5761165d6121ec565b5b0217905550817f6147c657c509b611c5b884671c7cb0da0e1eed364b561e0e9d48789b7942152560006003604051611697929190612cdd565b60405180910390a25050565b6116ab611ef7565b600081036116e5576040517f8eed55d100000000000000000000000000000000000000000000000000000000815260040160405180910390fd5b6000600360008581526020019081526020016000209050600081600301540361173a576040517f635e873700000000000000000000000000000000000000000000000000000000815260040160405180910390fd5b6000600381111561174e5761174d6121ec565b5b8160070160009054906101000a900460ff166003811115611772576117716121ec565b5b146117a9576040517f7becc13f00000000000000000000000000000000000000000000000000000000815260040160405180910390fd5b80600401544211156117e7576040517fa8f983eb00000000000000000000000000000000000000000000000000000000815260040160405180910390fd5b600060028111156117fb576117fa6121ec565b5b83600281111561180e5761180d6121ec565b5b03611845576040517f8eed55d100000000000000000000000000000000000000000000000000000000815260040160405180910390fd5b60006002811115611859576118586121ec565b5b6004600086815260200190815260200160002060003373ffffffffffffffffffffffffffffffffffffffff1673ffffffffffffffffffffffffffffffffffffffff16815260200190815260200160002060009054906101000a900460ff1660028111156118c9576118c86121ec565b5b14611900576040517f7c9a1cf900000000000000000000000000000000000000000000000000000000815260040160405180910390fd5b826004600086815260200190815260200160002060003373ffffffffffffffffffffffffffffffffffffffff1673ffffffffffffffffffffffffffffffffffffffff16815260200190815260200160002060006101000a81548160ff02191690836002811115611973576119726121ec565b5b02179055506001600281111561198c5761198b6121ec565b5b83600281111561199f5761199e6121ec565b5b036119c457818160050160008282546119b89190612912565b92505081905550611a0c565b6002808111156119d7576119d66121ec565b5b8360028111156119ea576119e96121ec565b5b03611a0b5781816006016000828254611a039190612912565b925050819055505b5b3373ffffffffffffffffffffffffffffffffffffffff16847f2c429843b755aefd47bd35f951ec584e567e65542f31d255ff570e130d0dd4048585604051611a55929190612c8b565b60405180910390a350611a66611f3d565b505050565b611a73611e70565b600073ffffffffffffffffffffffffffffffffffffffff168173ffffffffffffffffffffffffffffffffffffffff1603611ae55760006040517f1e4fbdf7000000000000000000000000000000000000000000000000000000008152600401611adc91906125b9565b60405180910390fd5b611aee81611f47565b50565b600080600360008481526020019081526020016000206003015403611b42576040517f635e873700000000000000000000000000000000000000000000000000000000815260040160405180910390fd5b600360008381526020019081526020016000206004015442119050919050565b611b6a611ef7565b60006003600084815260200190815260200160002090506000816003015403611bbf576040517f635e873700000000000000000000000000000000000000000000000000000000815260040160405180910390fd5b60006003811115611bd357611bd26121ec565b5b8160070160009054906101000a900460ff166003811115611bf757611bf66121ec565b5b14611c2e576040517f7becc13f00000000000000000000000000000000000000000000000000000000815260040160405180910390fd5b8060040154421115611ca95760038160070160006101000a81548160ff02191690836003811115611c6257611c616121ec565b5b0217905550827f6147c657c509b611c5b884671c7cb0da0e1eed364b561e0e9d48789b7942152560006003604051611c9b929190612cdd565b60405180910390a250611e38565b6000600260009054906101000a900473ffffffffffffffffffffffffffffffffffffffff1673ffffffffffffffffffffffffffffffffffffffff16630bbb6e0e83600501548460060154866040518463ffffffff1660e01b8152600401611d1293929190612d06565b602060405180830381865afa158015611d2f573d6000803e3d6000fd5b505050506040513d601f19601f82011682018060405250810190611d539190612d69565b9050600081611d63576002611d66565b60015b9050808360070160006101000a81548160ff02191690836003811115611d8f57611d8e6121ec565b5b0217905550600260009054906101000a900473ffffffffffffffffffffffffffffffffffffffff168360070160016101000a81548173ffffffffffffffffffffffffffffffffffffffff021916908373ffffffffffffffffffffffffffffffffffffffff160217905550847f6147c657c509b611c5b884671c7cb0da0e1eed364b561e0e9d48789b79421525600083604051611e2c929190612cdd565b60405180910390a25050505b611e40611f3d565b5050565b60075481565b600260009054906101000a900473ffffffffffffffffffffffffffffffffffffffff1681565b611e7861200d565b73ffffffffffffffffffffffffffffffffffffffff16611e96610ffb565b73ffffffffffffffffffffffffffffffffffffffff1614611ef557611eb961200d565b6040517f118cdaa7000000000000000000000000000000000000000000000000000000008152600401611eec91906125b9565b60405180910390fd5b565b600260005403611f33576040517f3ee5aeb500000000000000000000000000000000000000000000000000000000815260040160405180910390fd5b6002600081905550565b6001600081905550565b6000600160009054906101000a900473ffffffffffffffffffffffffffffffffffffffff16905081600160006101000a81548173ffffffffffffffffffffffffffffffffffffffff021916908373ffffffffffffffffffffffffffffffffffffffff1602179055508173ffffffffffffffffffffffffffffffffffffffff168173ffffffffffffffffffffffffffffffffffffffff167f8be0079c531659141344cd1fd0a4f28419497f9722a3daafe3b4186f6b6457e060405160405180910390a35050565b600033905090565b6040518061012001604052806060815260200160608152602001600073ffffffffffffffffffffffffffffffffffffffff168152602001600081526020016000815260200160008152602001600081526020016000600381111561207c5761207b6121ec565b5b8152602001600073ffffffffffffffffffffffffffffffffffffffff1681525090565b600080fd5b600080fd5b6000819050919050565b6120bc816120a9565b81146120c757600080fd5b50565b6000813590506120d9816120b3565b92915050565b6000602082840312156120f5576120f461209f565b5b6000612103848285016120ca565b91505092915050565b600081519050919050565b600082825260208201905092915050565b60005b8381101561214657808201518184015260208101905061212b565b60008484015250505050565b6000601f19601f8301169050919050565b600061216e8261210c565b6121788185612117565b9350612188818560208601612128565b61219181612152565b840191505092915050565b600073ffffffffffffffffffffffffffffffffffffffff82169050919050565b60006121c78261219c565b9050919050565b6121d7816121bc565b82525050565b6121e6816120a9565b82525050565b7f4e487b7100000000000000000000000000000000000000000000000000000000600052602160045260246000fd5b6004811061222c5761222b6121ec565b5b50565b600081905061223d8261221b565b919050565b600061224d8261222f565b9050919050565b61225d81612242565b82525050565b600061012082019050818103600083015261227e818c612163565b90508181036020830152612292818b612163565b90506122a1604083018a6121ce565b6122ae60608301896121dd565b6122bb60808301886121dd565b6122c860a08301876121dd565b6122d560c08301866121dd565b6122e260e0830185612254565b6122f06101008301846121ce565b9a9950505050505050505050565b612307816121bc565b811461231257600080fd5b50565b600081359050612324816122fe565b92915050565b600080604083850312156123415761234061209f565b5b600061234f858286016120ca565b925050602061236085828601612315565b9150509250929050565b6003811061237b5761237a6121ec565b5b50565b600081905061238c8261236a565b919050565b600061239c8261237e565b9050919050565b6123ac81612391565b82525050565b60006020820190506123c760008301846123a3565b92915050565b600080fd5b600080fd5b600080fd5b60008083601f8401126123f2576123f16123cd565b5b8235905067ffffffffffffffff81111561240f5761240e6123d2565b5b60208301915083600182028301111561242b5761242a6123d7565b5b9250929050565b60008060008060006060868803121561244e5761244d61209f565b5b600086013567ffffffffffffffff81111561246c5761246b6120a4565b5b612478888289016123dc565b9550955050602086013567ffffffffffffffff81111561249b5761249a6120a4565b5b6124a7888289016123dc565b935093505060406124ba888289016120ca565b9150509295509295909350565b60006020820190506124dc60008301846121dd565b92915050565b60008115159050919050565b6124f7816124e2565b82525050565b600060208201905061251260008301846124ee565b92915050565b6003811061252557600080fd5b50565b60008135905061253781612518565b92915050565b6000806000606084860312156125565761255561209f565b5b6000612564868287016120ca565b935050602061257586828701612528565b9250506040612586868287016120ca565b9150509250925092565b60006040820190506125a560008301856121dd565b6125b260208301846121dd565b9392505050565b60006020820190506125ce60008301846121ce565b92915050565b60006020820190506125e96000830184612254565b92915050565b600082825260208201905092915050565b600061260b8261210c565b61261581856125ef565b9350612625818560208601612128565b61262e81612152565b840191505092915050565b612642816121bc565b82525050565b612651816120a9565b82525050565b61266081612242565b82525050565b60006101208301600083015184820360008601526126848282612600565b9150506020830151848203602086015261269e8282612600565b91505060408301516126b36040860182612639565b5060608301516126c66060860182612648565b5060808301516126d96080860182612648565b5060a08301516126ec60a0860182612648565b5060c08301516126ff60c0860182612648565b5060e083015161271260e0860182612657565b50610100830151612727610100860182612639565b508091505092915050565b6000602082019050818103600083015261274c8184612666565b905092915050565b60006020828403121561276a5761276961209f565b5b600061277884828501612315565b91505092915050565b600080604083850312156127985761279761209f565b5b60006127a6858286016120ca565b92505060206127b7858286016120ca565b9150509250929050565b6000819050919050565b60006127e66127e16127dc8461219c565b6127c1565b61219c565b9050919050565b60006127f8826127cb565b9050919050565b600061280a826127ed565b9050919050565b61281a816127ff565b82525050565b60006020820190506128356000830184612811565b92915050565b7f4e487b7100000000000000000000000000000000000000000000000000000000600052602260045260246000fd5b6000600282049050600182168061288257607f821691505b6020821081036128955761289461283b565b5b50919050565b7f4e487b7100000000000000000000000000000000000000000000000000000000600052601160045260246000fd5b60006128d5826120a9565b91507fffffffffffffffffffffffffffffffffffffffffffffffffffffffffffffffff82036129075761290661289b565b5b600182019050919050565b600061291d826120a9565b9150612928836120a9565b92508282019050808211156129405761293f61289b565b5b92915050565b7f4e487b7100000000000000000000000000000000000000000000000000000000600052604160045260246000fd5b60008190508160005260206000209050919050565b60006020601f8301049050919050565b600082821b905092915050565b6000600883026129d77fffffffffffffffffffffffffffffffffffffffffffffffffffffffffffffffff8261299a565b6129e1868361299a565b95508019841693508086168417925050509392505050565b6000612a14612a0f612a0a846120a9565b6127c1565b6120a9565b9050919050565b6000819050919050565b612a2e836129f9565b612a42612a3a82612a1b565b8484546129a7565b825550505050565b600090565b612a57612a4a565b612a62818484612a25565b505050565b5b81811015612a8657612a7b600082612a4f565b600181019050612a68565b5050565b601f821115612acb57612a9c81612975565b612aa58461298a565b81016020851015612ab4578190505b612ac8612ac08561298a565b830182612a67565b50505b505050565b600082821c905092915050565b6000612aee60001984600802612ad0565b1980831691505092915050565b6000612b078383612add565b9150826002028217905092915050565b612b208261210c565b67ffffffffffffffff811115612b3957612b38612946565b5b612b43825461286a565b612b4e828285612a8a565b600060209050601f831160018114612b815760008415612b6f578287015190505b612b798582612afb565b865550612be1565b601f198416612b8f86612975565b60005b82811015612bb757848901518255600182019150602085019450602081019050612b92565b86831015612bd45784890151612bd0601f891682612add565b8355505b6001600288020188555050505b505050505050565b82818337600083830152505050565b6000612c048385612117565b9350612c11838584612be9565b612c1a83612152565b840190509392505050565b60006040820190508181036000830152612c40818587612bf8565b9050612c4f60208301846121dd565b949350505050565b6000612c62826120a9565b9150612c6d836120a9565b9250828203905081811115612c8557612c8461289b565b5b92915050565b6000604082019050612ca060008301856123a3565b612cad60208301846121dd565b9392505050565b6000604082019050612cc960008301856121ce565b612cd660208301846121ce565b9392505050565b6000604082019050612cf26000830185612254565b612cff6020830184612254565b9392505050565b6000606082019050612d1b60008301866121dd565b612d2860208301856121dd565b612d3560408301846121dd565b949350505050565b612d46816124e2565b8114612d5157600080fd5b50565b600081519050612d6381612d3d565b92915050565b600060208284031215612d7f57612d7e61209f565b5b6000612d8d84828501612d54565b9150509291505056fea26469706673582212201f2ccd58deba16452247d623bd78194b45ac2683fd0412297061cd4a16d29a3f64736f6c63430008140033",
  "linkReferences": {},
  "deployedLinkReferences": {}
}