{
  "_format": "hh-sol-artifact-1",
  "contractName": "SimpleMajorityStrategy",
  "sourceName": "contracts/SimpleMajorityStrategy.sol",
  "abi": [
    {
      "inputs": [
        {
          "internalType": "address",
          "name": "_staking",
          "type": "address"
        },
        {
          "internalType": "address",
          "name": "_parameters",
          "type": "address"
        }
      ],
      "stateMutability": "nonpayable",
      "type": "constructor"
    },
    {
      "inputs": [],
      "name": "InvalidAddress",
      "type": "error"
    },
    {
      "inputs": [
        {
          "internalType": "address",
          "name": "user",
          "type": "address"
        }
      ],
      "name": "calculateVotingPower",
      "outputs": [
        {
          "internalType": "uint256",
          "name": "votingPower",
          "type": "uint256"
        }
      ],
      "stateMutability": "view",
      "type": "function"
    },
    {
      "inputs": [
        {
          "internalType": "uint256",
          "name": "votesFor",
          "type": "uint256"
        },
        {
          "internalType": "uint256",
          "name": "votesAgainst",
          "type": "uint256"
        },
        {
          "internalType": "uint256",
          "name": "",
          "type": "uint256"
        }
      ],
      "name": "isProposalAccepted",
      "outputs": [
        {
          "internalType": "bool",
          "name": "",
          "type": "bool"
        }
      ],
      "stateMutability": "pure",
      "type": "function"
    },
    {
      "inputs": [],
      "name": "parameters",
      "outputs": [
        {
          "internalType": "contract Parameters",
          "name": "",
          "type": "address"
        }
      ],
      "stateMutability": "view",
      "type": "function"
    },
    {
      "inputs": [],
      "name": "staking",
      "outputs": [
        {
          "internalType": "contract Staking",
          "name": "",
          "type": "address"
        }
      ],
      "stateMutability": "view",
      "type": "function"
    }
  ],
  "bytecode": "0x608060405234801561001057600080fd5b50604051610872380380610872833981810160405281019061003291906101e9565b600073ffffffffffffffffffffffffffffffffffffffff168273ffffffffffffffffffffffffffffffffffffffff1603610098576040517fe6c4247b00000000000000000000000000000000000000000000000000000000815260040160405180910390fd5b600073ffffffffffffffffffffffffffffffffffffffff168173ffffffffffffffffffffffffffffffffffffffff16036100fe576040517fe6c4247b00000000000000000000000000000000000000000000000000000000815260040160405180910390fd5b816000806101000a81548173ffffffffffffffffffffffffffffffffffffffff021916908373ffffffffffffffffffffffffffffffffffffffff16021790555080600160006101000a81548173ffffffffffffffffffffffffffffffffffffffff021916908373ffffffffffffffffffffffffffffffffffffffff1602179055505050610229565b600080fd5b600073ffffffffffffffffffffffffffffffffffffffff82169050919050565b60006101b68261018b565b9050919050565b6101c6816101ab565b81146101d157600080fd5b50565b6000815190506101e3816101bd565b92915050565b60008060408385031215610200576101ff610186565b5b600061020e858286016101d4565b925050602061021f858286016101d4565b9150509250929050565b61063a806102386000396000f3fe608060405234801561001057600080fd5b506004361061004c5760003560e01c80630bbb6e0e146100515780634cf088d91461008157806359d177e61461009f57806389035730146100cf575b600080fd5b61006b60048036038101906100669190610344565b6100ed565b60405161007891906103b2565b60405180910390f35b6100896100fb565b604051610096919061044c565b60405180910390f35b6100b960048036038101906100b491906104a5565b61011f565b6040516100c691906104e1565b60405180910390f35b6100d76102e3565b6040516100e4919061051d565b60405180910390f35b600082841190509392505050565b60008054906101000a900473ffffffffffffffffffffffffffffffffffffffff1681565b60008073ffffffffffffffffffffffffffffffffffffffff168273ffffffffffffffffffffffffffffffffffffffff1603610186576040517fe6c4247b00000000000000000000000000000000000000000000000000000000815260040160405180910390fd5b60008060009054906101000a900473ffffffffffffffffffffffffffffffffffffffff1673ffffffffffffffffffffffffffffffffffffffff16630114ecca846040518263ffffffff1660e01b81526004016101e29190610547565b602060405180830381865afa1580156101ff573d6000803e3d6000fd5b505050506040513d601f19601f820116820180604052508101906102239190610577565b90506000600160009054906101000a900473ffffffffffffffffffffffffffffffffffffffff1673ffffffffffffffffffffffffffffffffffffffff1663dc53a7096040518163ffffffff1660e01b8152600401602060405180830381865afa158015610294573d6000803e3d6000fd5b505050506040513d601f19601f820116820180604052508101906102b89190610577565b9050600081036102cd576000925050506102de565b80826102d991906105d3565b925050505b919050565b600160009054906101000a900473ffffffffffffffffffffffffffffffffffffffff1681565b600080fd5b6000819050919050565b6103218161030e565b811461032c57600080fd5b50565b60008135905061033e81610318565b92915050565b60008060006060848603121561035d5761035c610309565b5b600061036b8682870161032f565b935050602061037c8682870161032f565b925050604061038d8682870161032f565b9150509250925092565b60008115159050919050565b6103ac81610397565b82525050565b60006020820190506103c760008301846103a3565b92915050565b600073ffffffffffffffffffffffffffffffffffffffff82169050919050565b6000819050919050565b600061041261040d610408846103cd565b6103ed565b6103cd565b9050919050565b6000610424826103f7565b9050919050565b600061043682610419565b9050919050565b6104468161042b565b82525050565b6000602082019050610461600083018461043d565b92915050565b6000610472826103cd565b9050919050565b61048281610467565b811461048d57600080fd5b50565b60008135905061049f81610479565b92915050565b6000602082840312156104bb576104ba610309565b5b60006104c984828501610490565b91505092915050565b6104db8161030e565b82525050565b60006020820190506104f660008301846104d2565b92915050565b600061050782610419565b9050919050565b610517816104fc565b82525050565b6000602082019050610532600083018461050e565b92915050565b61054181610467565b82525050565b600060208201905061055c6000830184610538565b92915050565b60008151905061057181610318565b92915050565b60006020828403121561058d5761058c610309565b5b600061059b84828501610562565b91505092915050565b7f4e487b7100000000000000000000000000000000000000000000000000000000600052601260045260246000fd5b60006105de8261030e565b91506105e98361030e565b9250826105f9576105f86105a4565b5b82820490509291505056fea2646970667358221220f37607d12c0b60dc3935d2004692e829b6e7c073ae01c8dbc0135196a6bf555764736f6c63430008140033",
  "linkReferences": {},
  "deployedLinkReferences": {}
}