{
  "_format": "hh-sol-artifact-1",
  "contractName": "Staking",
  "sourceName": "contracts/Staking.sol",
  "abi": [
    {
      "inputs": [
        {
          "internalType": "address",
          "name": "_token",
          "type": "address"
        },
        {
          "internalType": "address",
          "name": "_parameters",
          "type": "address"
        }
      ],
      "stateMutability": "nonpayable",
      "type": "constructor"
    },
    {
      "inputs": [],
      "name": "InsufficientStake",
      "type": "error"
    },
    {
      "inputs": [],
      "name": "InvalidAddress",
      "type": "error"
    },
    {
      "inputs": [],
      "name": "InvalidAmount",
      "type": "error"
    },
    {
      "inputs": [
        {
          "internalType": "address",
          "name": "owner",
          "type": "address"
        }
      ],
      "name": "OwnableInvalidOwner",
      "type": "error"
    },
    {
      "inputs": [
        {
          "internalType": "address",
          "name": "account",
          "type": "address"
        }
      ],
      "name": "OwnableUnauthorizedAccount",
      "type": "error"
    },
    {
      "inputs": [],
      "name": "ReentrancyGuardReentrantCall",
      "type": "error"
    },
    {
      "inputs": [],
      "name": "StakeLocked",
      "type": "error"
    },
    {
      "anonymous": false,
      "inputs": [
        {
          "indexed": true,
          "internalType": "address",
          "name": "previousOwner",
          "type": "address"
        },
        {
          "indexed": true,
          "internalType": "address",
          "name": "newOwner",
          "type": "address"
        }
      ],
      "name": "OwnershipTransferred",
      "type": "event"
    },
    {
      "anonymous": false,
      "inputs": [
        {
          "indexed": false,
          "internalType": "address",
          "name": "oldAddress",
          "type": "address"
        },
        {
          "indexed": false,
          "internalType": "address",
          "name": "newAddress",
          "type": "address"
        }
      ],
      "name": "ParametersUpdated",
      "type": "event"
    },
    {
      "anonymous": false,
      "inputs": [
        {
          "indexed": true,
          "internalType": "address",
          "name": "user",
          "type": "address"
        },
        {
          "indexed": false,
          "internalType": "uint256",
          "name": "amount",
          "type": "uint256"
        },
        {
          "indexed": false,
          "internalType": "uint256",
          "name": "lockedUntil",
          "type": "uint256"
        }
      ],
      "name": "StakedForProposing",
      "type": "event"
    },
    {
      "anonymous": false,
      "inputs": [
        {
          "indexed": true,
          "internalType": "address",
          "name": "user",
          "type": "address"
        },
        {
          "indexed": false,
          "internalType": "uint256",
          "name": "amount",
          "type": "uint256"
        },
        {
          "indexed": false,
          "internalType": "uint256",
          "name": "lockedUntil",
          "type": "uint256"
        }
      ],
      "name": "StakedForVoting",
      "type": "event"
    },
    {
      "anonymous": false,
      "inputs": [
        {
          "indexed": true,
          "internalType": "address",
          "name": "user",
          "type": "address"
        },
        {
          "indexed": false,
          "internalType": "uint256",
          "name": "amount",
          "type": "uint256"
        }
      ],
      "name": "UnstakedProposing",
      "type": "event"
    },
    {
      "anonymous": false,
      "inputs": [
        {
          "indexed": true,
          "internalType": "address",
          "name": "user",
          "type": "address"
        },
        {
          "indexed": false,
          "internalType": "uint256",
          "name": "amount",
          "type": "uint256"
        }
      ],
      "name": "UnstakedVoting",
      "type": "event"
    },
    {
      "inputs": [
        {
          "internalType": "address",
          "name": "user",
          "type": "address"
        }
      ],
      "name": "getProposingStake",
      "outputs": [
        {
          "internalType": "uint256",
          "name": "",
          "type": "uint256"
        }
      ],
      "stateMutability": "view",
      "type": "function"
    },
    {
      "inputs": [
        {
          "internalType": "address",
          "name": "user",
          "type": "address"
        }
      ],
      "name": "getVotingStake",
      "outputs": [
        {
          "internalType": "uint256",
          "name": "",
          "type": "uint256"
        }
      ],
      "stateMutability": "view",
      "type": "function"
    },
    {
      "inputs": [
        {
          "internalType": "address",
          "name": "",
          "type": "address"
        }
      ],
      "name": "lockedUntilProposing",
      "outputs": [
        {
          "internalType": "uint256",
          "name": "",
          "type": "uint256"
        }
      ],
      "stateMutability": "view",
      "type": "function"
    },
    {
      "inputs": [
        {
          "internalType": "address",
          "name": "",
          "type": "address"
        }
      ],
      "name": "lockedUntilVoting",
      "outputs": [
        {
          "internalType": "uint256",
          "name": "",
          "type": "uint256"
        }
      ],
      "stateMutability": "view",
      "type": "function"
    },
    {
      "inputs": [],
      "name": "owner",
      "outputs": [
        {
          "internalType": "address",
          "name": "",
          "type": "address"
        }
      ],
      "stateMutability": "view",
      "type": "function"
    },
    {
      "inputs": [],
      "name": "parameters",
      "outputs": [
        {
          "internalType": "contract IParameters",
          "name": "",
          "type": "address"
        }
      ],
      "stateMutability": "view",
      "type": "function"
    },
    {
      "inputs": [
        {
          "internalType": "address",
          "name": "",
          "type": "address"
        }
      ],
      "name": "proposalStake",
      "outputs": [
        {
          "internalType": "uint256",
          "name": "",
          "type": "uint256"
        }
      ],
      "stateMutability": "view",
      "type": "function"
    },
    {
      "inputs": [],
      "name": "proposingLock",
      "outputs": [
        {
          "internalType": "uint256",
          "name": "",
          "type": "uint256"
        }
      ],
      "stateMutability": "view",
      "type": "function"
    },
    {
      "inputs": [],
      "name": "renounceOwnership",
      "outputs": [],
      "stateMutability": "nonpayable",
      "type": "function"
    },
    {
      "inputs": [
        {
          "internalType": "address",
          "name": "newParameters",
          "type": "address"
        }
      ],
      "name": "setParameters",
      "outputs": [],
      "stateMutability": "nonpayable",
      "type": "function"
    },
    {
      "inputs": [
        {
          "internalType": "uint256",
          "name": "newLock",
          "type": "uint256"
        }
      ],
      "name": "setProposingLock",
      "outputs": [],
      "stateMutability": "nonpayable",
      "type": "function"
    },
    {
      "inputs": [
        {
          "internalType": "uint256",
          "name": "newLock",
          "type": "uint256"
        }
      ],
      "name": "setVotingLock",
      "outputs": [],
      "stateMutability": "nonpayable",
      "type": "function"
    },
    {
      "inputs": [
        {
          "internalType": "uint256",
          "name": "amount",
          "type": "uint256"
        }
      ],
      "name": "stakeForProposing",
      "outputs": [],
      "stateMutability": "nonpayable",
      "type": "function"
    },
    {
      "inputs": [
        {
          "internalType": "uint256",
          "name": "amount",
          "type": "uint256"
        }
      ],
      "name": "stakeForVoting",
      "outputs": [],
      "stateMutability": "nonpayable",
      "type": "function"
    },
    {
      "inputs": [],
      "name": "token",
      "outputs": [
        {
          "internalType": "contract IERC20",
          "name": "",
          "type": "address"
        }
      ],
      "stateMutability": "view",
      "type": "function"
    },
    {
      "inputs": [],
      "name": "totalProposalStaked",
      "outputs": [
        {
          "internalType": "uint256",
          "name": "",
          "type": "uint256"
        }
      ],
      "stateMutability": "view",
      "type": "function"
    },
    {
      "inputs": [],
      "name": "totalVotingStaked",
      "outputs": [
        {
          "internalType": "uint256",
          "name": "",
          "type": "uint256"
        }
      ],
      "stateMutability": "view",
      "type": "function"
    },
    {
      "inputs": [
        {
          "internalType": "address",
          "name": "newOwner",
          "type": "address"
        }
      ],
      "name": "transferOwnership",
      "outputs": [],
      "stateMutability": "nonpayable",
      "type": "function"
    },
    {
      "inputs": [
        {
          "internalType": "uint256",
          "name": "amount",
          "type": "uint256"
        }
      ],
      "name": "unstakeFromProposing",
      "outputs": [],
      "stateMutability": "nonpayable",
      "type": "function"
    },
    {
      "inputs": [
        {
          "internalType": "uint256",
          "name": "amount",
          "type": "uint256"
        }
      ],
      "name": "unstakeFromVoting",
      "outputs": [],
      "stateMutability": "nonpayable",
      "type": "function"
    },
    {
      "inputs": [],
      "name": "votingLock",
      "outputs": [
        {
          "internalType": "uint256",
          "name": "",
          "type": "uint256"
        }
      ],
      "stateMutability": "view",
      "type": "function"
    },
    {
      "inputs": [
        {
          "internalType": "address",
          "name": "",
          "type": "address"
        }
      ],
      "name": "votingStake",
      "outputs": [
        {
          "internalType": "uint256",
          "name": "",
          "type": "uint256"
        }
      ],
      "stateMutability": "view",
      "type": "function"
    }
  ],
  "bytecode": "0x60a06040523480156200001157600080fd5b50604051620019ab380380620019ab833981810160405281019062000037919062000342565b336001600081905550600073ffffffffffffffffffffffffffffffffffffffff168173ffffffffffffffffffffffffffffffffffffffff1603620000b55760006040517f1e4fbdf7000000000000000000000000000000000000000000000000000000008152600401620000ac91906200039a565b60405180910390fd5b620000c6816200021260201b60201c565b50600073ffffffffffffffffffffffffffffffffffffffff168273ffffffffffffffffffffffffffffffffffffffff16036200012e576040517fe6c4247b00000000000000000000000000000000000000000000000000000000815260040160405180910390fd5b600073ffffffffffffffffffffffffffffffffffffffff168173ffffffffffffffffffffffffffffffffffffffff160362000195576040517fe6c4247b00000000000000000000000000000000000000000000000000000000815260040160405180910390fd5b8173ffffffffffffffffffffffffffffffffffffffff1660808173ffffffffffffffffffffffffffffffffffffffff168152505080600260006101000a81548173ffffffffffffffffffffffffffffffffffffffff021916908373ffffffffffffffffffffffffffffffffffffffff1602179055505050620003b7565b6000600160009054906101000a900473ffffffffffffffffffffffffffffffffffffffff16905081600160006101000a81548173ffffffffffffffffffffffffffffffffffffffff021916908373ffffffffffffffffffffffffffffffffffffffff1602179055508173ffffffffffffffffffffffffffffffffffffffff168173ffffffffffffffffffffffffffffffffffffffff167f8be0079c531659141344cd1fd0a4f28419497f9722a3daafe3b4186f6b6457e060405160405180910390a35050565b600080fd5b600073ffffffffffffffffffffffffffffffffffffffff82169050919050565b60006200030a82620002dd565b9050919050565b6200031c81620002fd565b81146200032857600080fd5b50565b6000815190506200033c8162000311565b92915050565b600080604083850312156200035c576200035b620002d8565b5b60006200036c858286016200032b565b92505060206200037f858286016200032b565b9150509250929050565b6200039481620002fd565b82525050565b6000602082019050620003b1600083018462000389565b92915050565b6080516115bc620003ef600039600081816105d7015281816109be01528181610b8c01528181610dae015261100e01526115bc6000f3fe608060405234801561001057600080fd5b50600436106101425760003560e01c80638da5cb5b116100b8578063d12156c31161007c578063d12156c314610361578063d1b85b491461037f578063e434b9cd1461039b578063f2fde38b146103cb578063fc0c546a146103e7578063ff1faf0b1461040557610142565b80638da5cb5b146102a95780639f45b133146102c75780639fd622be146102f7578063a028699e14610315578063c43aa1601461033157610142565b806338750a5e1161010a57806338750a5e1461020f578063490377a71461022d578063542ffa7b14610249578063715018a614610265578063807fc36f1461026f578063890357301461028b57610142565b80630114ecca146101475780630627d4251461017757806308e5a9b8146101935780630b387da9146101c357806321946dc5146101f3575b600080fd5b610161600480360381019061015c919061123e565b610423565b60405161016e9190611284565b60405180910390f35b610191600480360381019061018c91906112cb565b61046c565b005b6101ad60048036038101906101a8919061123e565b6106cd565b6040516101ba9190611284565b60405180910390f35b6101dd60048036038101906101d8919061123e565b6106e5565b6040516101ea9190611284565b60405180910390f35b61020d600480360381019061020891906112cb565b61072e565b005b610217610740565b6040516102249190611284565b60405180910390f35b6102476004803603810190610242919061123e565b610746565b005b610263600480360381019061025e91906112cb565b610853565b005b61026d610ab4565b005b610289600480360381019061028491906112cb565b610ac8565b005b610293610ada565b6040516102a09190611357565b60405180910390f35b6102b1610b00565b6040516102be9190611381565b60405180910390f35b6102e160048036038101906102dc919061123e565b610b2a565b6040516102ee9190611284565b60405180910390f35b6102ff610b42565b60405161030c9190611284565b60405180910390f35b61032f600480360381019061032a91906112cb565b610b48565b005b61034b6004803603810190610346919061123e565b610d4c565b6040516103589190611284565b60405180910390f35b610369610d64565b6040516103769190611284565b60405180910390f35b610399600480360381019061039491906112cb565b610d6a565b005b6103b560048036038101906103b0919061123e565b610f6e565b6040516103c29190611284565b60405180910390f35b6103e560048036038101906103e0919061123e565b610f86565b005b6103ef61100c565b6040516103fc91906113bd565b60405180910390f35b61040d611030565b60405161041a9190611284565b60405180910390f35b6000600560008373ffffffffffffffffffffffffffffffffffffffff1673ffffffffffffffffffffffffffffffffffffffff168152602001908152602001600020549050919050565b610474611036565b600860003373ffffffffffffffffffffffffffffffffffffffff1673ffffffffffffffffffffffffffffffffffffffff168152602001908152602001600020544210156104ed576040517f14d10a0200000000000000000000000000000000000000000000000000000000815260040160405180910390fd5b80600660003373ffffffffffffffffffffffffffffffffffffffff1673ffffffffffffffffffffffffffffffffffffffff168152602001908152602001600020541015610566576040517ff1bc94d200000000000000000000000000000000000000000000000000000000815260040160405180910390fd5b80600660003373ffffffffffffffffffffffffffffffffffffffff1673ffffffffffffffffffffffffffffffffffffffff16815260200190815260200160002060008282546105b59190611407565b9250508190555080600a60008282546105ce9190611407565b925050819055507f000000000000000000000000000000000000000000000000000000000000000073ffffffffffffffffffffffffffffffffffffffff1663a9059cbb33836040518363ffffffff1660e01b815260040161063092919061143b565b6020604051808303816000875af115801561064f573d6000803e3d6000fd5b505050506040513d601f19601f82011682018060405250810190610673919061149c565b503373ffffffffffffffffffffffffffffffffffffffff167f0fd1da33cb2d56f492958d941f0b7c5e0d812455d4a259cd74c767b4d8521f46826040516106ba9190611284565b60405180910390a26106ca61107c565b50565b60066020528060005260406000206000915090505481565b6000600660008373ffffffffffffffffffffffffffffffffffffffff1673ffffffffffffffffffffffffffffffffffffffff168152602001908152602001600020549050919050565b610736611086565b8060048190555050565b60035481565b61074e611086565b600073ffffffffffffffffffffffffffffffffffffffff168173ffffffffffffffffffffffffffffffffffffffff16036107b4576040517fe6c4247b00000000000000000000000000000000000000000000000000000000815260040160405180910390fd5b7f4c3ae2d5ab7889e494377f49caad483550b020dae473f1df59c325718e6683a0600260009054906101000a900473ffffffffffffffffffffffffffffffffffffffff16826040516108079291906114c9565b60405180910390a180600260006101000a81548173ffffffffffffffffffffffffffffffffffffffff021916908373ffffffffffffffffffffffffffffffffffffffff16021790555050565b61085b611036565b600760003373ffffffffffffffffffffffffffffffffffffffff1673ffffffffffffffffffffffffffffffffffffffff168152602001908152602001600020544210156108d4576040517f14d10a0200000000000000000000000000000000000000000000000000000000815260040160405180910390fd5b80600560003373ffffffffffffffffffffffffffffffffffffffff1673ffffffffffffffffffffffffffffffffffffffff16815260200190815260200160002054101561094d576040517ff1bc94d200000000000000000000000000000000000000000000000000000000815260040160405180910390fd5b80600560003373ffffffffffffffffffffffffffffffffffffffff1673ffffffffffffffffffffffffffffffffffffffff168152602001908152602001600020600082825461099c9190611407565b9250508190555080600960008282546109b59190611407565b925050819055507f000000000000000000000000000000000000000000000000000000000000000073ffffffffffffffffffffffffffffffffffffffff1663a9059cbb33836040518363ffffffff1660e01b8152600401610a1792919061143b565b6020604051808303816000875af1158015610a36573d6000803e3d6000fd5b505050506040513d601f19601f82011682018060405250810190610a5a919061149c565b503373ffffffffffffffffffffffffffffffffffffffff167fb5a442758cc492e0ed9a48eaf5b9621a5aea031a6661c733d2b676c6155186ad82604051610aa19190611284565b60405180910390a2610ab161107c565b50565b610abc611086565b610ac6600061110d565b565b610ad0611086565b8060038190555050565b600260009054906101000a900473ffffffffffffffffffffffffffffffffffffffff1681565b6000600160009054906101000a900473ffffffffffffffffffffffffffffffffffffffff16905090565b60056020528060005260406000206000915090505481565b600a5481565b610b50611036565b60008103610b8a576040517f2c5211c600000000000000000000000000000000000000000000000000000000815260040160405180910390fd5b7f000000000000000000000000000000000000000000000000000000000000000073ffffffffffffffffffffffffffffffffffffffff166323b872dd3330846040518463ffffffff1660e01b8152600401610be7939291906114f2565b6020604051808303816000875af1158015610c06573d6000803e3d6000fd5b505050506040513d601f19601f82011682018060405250810190610c2a919061149c565b5080600660003373ffffffffffffffffffffffffffffffffffffffff1673ffffffffffffffffffffffffffffffffffffffff1681526020019081526020016000206000828254610c7a9190611529565b9250508190555080600a6000828254610c939190611529565b92505081905550600060045442610caa9190611529565b905080600860003373ffffffffffffffffffffffffffffffffffffffff1673ffffffffffffffffffffffffffffffffffffffff168152602001908152602001600020819055503373ffffffffffffffffffffffffffffffffffffffff167f660561adcf5c93b073a70c4da9a2da796ca47155d3fb802ef580d089f40189578383604051610d3892919061155d565b60405180910390a250610d4961107c565b50565b60076020528060005260406000206000915090505481565b60095481565b610d72611036565b60008103610dac576040517f2c5211c600000000000000000000000000000000000000000000000000000000815260040160405180910390fd5b7f000000000000000000000000000000000000000000000000000000000000000073ffffffffffffffffffffffffffffffffffffffff166323b872dd3330846040518463ffffffff1660e01b8152600401610e09939291906114f2565b6020604051808303816000875af1158015610e28573d6000803e3d6000fd5b505050506040513d601f19601f82011682018060405250810190610e4c919061149c565b5080600560003373ffffffffffffffffffffffffffffffffffffffff1673ffffffffffffffffffffffffffffffffffffffff1681526020019081526020016000206000828254610e9c9190611529565b925050819055508060096000828254610eb59190611529565b92505081905550600060035442610ecc9190611529565b905080600760003373ffffffffffffffffffffffffffffffffffffffff1673ffffffffffffffffffffffffffffffffffffffff168152602001908152602001600020819055503373ffffffffffffffffffffffffffffffffffffffff167f2bffe6491b7e155099f729376a2d8973c43d3af3213864458fc3a329936db61a8383604051610f5a92919061155d565b60405180910390a250610f6b61107c565b50565b60086020528060005260406000206000915090505481565b610f8e611086565b600073ffffffffffffffffffffffffffffffffffffffff168173ffffffffffffffffffffffffffffffffffffffff16036110005760006040517f1e4fbdf7000000000000000000000000000000000000000000000000000000008152600401610ff79190611381565b60405180910390fd5b6110098161110d565b50565b7f000000000000000000000000000000000000000000000000000000000000000081565b60045481565b600260005403611072576040517f3ee5aeb500000000000000000000000000000000000000000000000000000000815260040160405180910390fd5b6002600081905550565b6001600081905550565b61108e6111d3565b73ffffffffffffffffffffffffffffffffffffffff166110ac610b00565b73ffffffffffffffffffffffffffffffffffffffff161461110b576110cf6111d3565b6040517f118cdaa70000000000000000000000000000000000000000000000000000000081526004016111029190611381565b60405180910390fd5b565b6000600160009054906101000a900473ffffffffffffffffffffffffffffffffffffffff16905081600160006101000a81548173ffffffffffffffffffffffffffffffffffffffff021916908373ffffffffffffffffffffffffffffffffffffffff1602179055508173ffffffffffffffffffffffffffffffffffffffff168173ffffffffffffffffffffffffffffffffffffffff167f8be0079c531659141344cd1fd0a4f28419497f9722a3daafe3b4186f6b6457e060405160405180910390a35050565b600033905090565b600080fd5b600073ffffffffffffffffffffffffffffffffffffffff82169050919050565b600061120b826111e0565b9050919050565b61121b81611200565b811461122657600080fd5b50565b60008135905061123881611212565b92915050565b600060208284031215611254576112536111db565b5b600061126284828501611229565b91505092915050565b6000819050919050565b61127e8161126b565b82525050565b60006020820190506112996000830184611275565b92915050565b6112a88161126b565b81146112b357600080fd5b50565b6000813590506112c58161129f565b92915050565b6000602082840312156112e1576112e06111db565b5b60006112ef848285016112b6565b91505092915050565b6000819050919050565b600061131d611318611313846111e0565b6112f8565b6111e0565b9050919050565b600061132f82611302565b9050919050565b600061134182611324565b9050919050565b61135181611336565b82525050565b600060208201905061136c6000830184611348565b92915050565b61137b81611200565b82525050565b60006020820190506113966000830184611372565b92915050565b60006113a782611324565b9050919050565b6113b78161139c565b82525050565b60006020820190506113d260008301846113ae565b92915050565b7f4e487b7100000000000000000000000000000000000000000000000000000000600052601160045260246000fd5b60006114128261126b565b915061141d8361126b565b9250828203905081811115611435576114346113d8565b5b92915050565b60006040820190506114506000830185611372565b61145d6020830184611275565b9392505050565b60008115159050919050565b61147981611464565b811461148457600080fd5b50565b60008151905061149681611470565b92915050565b6000602082840312156114b2576114b16111db565b5b60006114c084828501611487565b91505092915050565b60006040820190506114de6000830185611372565b6114eb6020830184611372565b9392505050565b60006060820190506115076000830186611372565b6115146020830185611372565b6115216040830184611275565b949350505050565b60006115348261126b565b915061153f8361126b565b9250828201905080821115611557576115566113d8565b5b92915050565b60006040820190506115726000830185611275565b61157f6020830184611275565b939250505056fea26469706673582212200528559a0e8956bad254fd06925574c88c45926f8caec4e796c11d2cfbe79fd664736f6c63430008140033",
  "linkReferences": {},
  "deployedLinkReferences": {}
}